:020000040800F2
:1000000000C0012091220008792000087F2000080C
:10001000852000088B2000089120000800000000C7
:100020000000000000000000000000009720000811
:10003000A520000800000000B3200008C12000082F
:10004000E1220008E1220008E1220008E122000884
:10005000E1220008E1220008E1220008E122000874
:10006000E1220008E1220008E1220008E122000864
:10007000E1220008E1220008E1220008E122000854
:10008000E1220008E1220008E1220008E122000844
:10009000E1220008E1220008E1220008E122000834
:1000A000E1220008E1220008E1220008E122000824
:1000B000CD200008E1220008E1220008E12200082A
:1000C000E1220008E1220008E1220008E122000804
:1000D000E1220008E1220008E1220008E1220008F4
:1000E000E1220008E1220008E1220008E1220008E4
:1000F000E1220008E1220008E1220008E1220008D4
:1001000000000000E122000800000000E1220008D9
:10011000E1220008E1220008E1220008E1220008B3
:10012000E1220008E1220008E1220008E1220008A3
:10013000E12200080000000000000000E1220008A9
:10014000E1220008E1220008000000000000000099
:10015000000000000000000000000000000000009F
:10016000000000000000000000000000E122000884
:10017000E1220008E1220008E1220008E122000853
:10018000E1220008E1220008000000000000000059
:100190000000000000000000E1220008E122000849
:1001A0000000000000000000E1220008E122000839
:1001B000E1220008E1220008E1220008E122000813
:1001C000E1220008E1220008E1220008E122000803
:0801D000E1220008E122000811
:1001E00010B5054C237833B9044B13B10448AFF371
:1001F00000800123237010BDD80100200000000002
:1002000098A4000808B5034B1BB103490348AFF39A
:10021000008008BD00000000DC01002098A4000858
:1002200001F0FF01102A2BDB10F0070F08D010F8A7
:10023000013B013A8B422DD010F0070F42B3F6D1AB
:10024000F0B441EA012141EA014122F007047FF0C4
:1002500000070023F0E80256083C85EA010586EA1B
:10026000010685FA47F5A3FA87F586FA47F6A5FA57
:1002700087F68EB9EED1F0BC01F0FF0102F0070263
:1002800032B110F8013B013A83EA010313B1F8D10E
:100290000020704701387047002D06BF35460338EF
:1002A000073815F0010F07D1013015F4807F02BF28
:1002B000013015F4C03F0130F0BC0138704700BF79
:1002C000034613F8012B002AFBD1181A0138704796
:1002D00081F0004102E000BF83F0004330B54FEAF7
:1002E00041044FEA430594EA050F08BF90EA020F64
:1002F0001FBF54EA000C55EA020C7FEA645C7FEAF7
:10030000655C00F0E2804FEA5454D4EB5555B8BF19
:100310006D420CDD2C4480EA020281EA030382EA8A
:10032000000083EA010180EA020281EA0303362D1C
:1003300088BF30BD11F0004F4FEA01314FF4801CEF
:100340004CEA113102D0404261EB410113F0004F01
:100350004FEA03334CEA133302D0524263EB4303B8
:1003600094EA050F00F0A780A4F10104D5F1200E56
:100370000DDB02FA0EFC22FA05F2801841F10001B1
:1003800003FA0EF2801843FA05F359410EE0A5F185
:1003900020050EF1200E012A03FA0EFC28BF4CF0B6
:1003A000020C43FA05F3C01851EBE37101F000456C
:1003B00007D54FF0000EDCF1000C7EEB00006EEB79
:1003C0000101B1F5801F1BD3B1F5001F0CD3490803
:1003D0005FEA30004FEA3C0C04F101044FEA44525A
:1003E00012F5800F80F09A80BCF1004F08BF5FEAE1
:1003F000500C50F1000041EB045141EA050130BDC1
:100400005FEA4C0C404141EB0101013C28BFB1F5D2
:10041000801FE9D291F0000F04BF01460020B1FA1D
:1004200081F308BF2033A3F10B03B3F120020CDAF0
:100430000C3208DD02F1140CC2F10C0201FA0CF0CE
:1004400021FA02F10CE002F11402D8BFC2F1200C33
:1004500001FA02F120FA0CFCDCBF41EA0C019040E9
:10046000E41AA2BF01EB0451294330BD6FEA040432
:100470001F3C1CDA0C340EDC04F11404C4F120021D
:1004800020FA04F001FA02F340EA030021FA04F32F
:1004900045EA030130BDC4F10C04C4F1200220FA86
:1004A00002F001FA04F340EA0300294630BD21FAC4
:1004B00004F0294630BD94F0000F83F4801306BF8A
:1004C00081F480110134013D4EE77FEA645C18BF7E
:1004D0007FEA655C29D094EA050F08BF90EA020F15
:1004E00005D054EA000C04BF1946104630BD91EA0D
:1004F000030F1EBF0021002030BD5FEA545C05D110
:100500004000494128BF41F0004130BD14F580044E
:100510003CBF01F5801130BD01F0004545F0FE41C2
:1005200041F470014FF0000030BD7FEA645C1ABFF7
:10053000194610467FEA655C1CBF0B46024650EA2E
:10054000013406BF52EA033591EA030F41F400215A
:1005500030BD00BF90F0000F04BF0021704730B5E0
:100560004FF4806404F132044FF000054FF00001B5
:1005700050E700BF90F0000F04BF0021704730B576
:100580004FF4806404F1320410F0004548BF40424B
:100590004FF000013EE700BF42004FEAE2014FEAA0
:1005A00031014FEA02701FBF12F07F4393F07F4F7B
:1005B00081F06051704732F07F4208BF704793F07E
:1005C0007F4F04BF41F40021704730B54FF4607491
:1005D00001F0004521F000411CE700BF50EA010294
:1005E00008BF704730B54FF000050AE050EA01023D
:1005F00008BF704730B511F0004502D5404261EBAD
:1006000041014FF4806404F132045FEA915C3FF4ED
:10061000D8AE4FF003025FEADC0C18BF03325FEA8A
:10062000DC0C18BF033202EBDC02C2F1200300FA3B
:1006300003FC20FA02F001FA03FE40EA0E0021FA60
:1006400002F11444BDE600BF70B54FF0FF0C4CF44E
:10065000E06C1CEA11541DBF1CEA135594EA0C0F00
:1006600095EA0C0F00F0DEF82C4481EA030621EA3B
:100670004C5123EA4C5350EA013518BF52EA033576
:1006800041F4801143F4801338D0A0FB02CE4FF028
:100690000005E1FB02E506F00042E0FB03E54FF058
:1006A0000006E1FB03569CF0000F18BF4EF0010E50
:1006B000A4F1FF04B6F5007F64F5407404D25FEA4C
:1006C0004E0E6D4146EB060642EAC62141EA5551FF
:1006D0004FEAC52040EA5E504FEACE2EB4F1FD0C41
:1006E00088BFBCF5E06F1ED8BEF1004F08BF5FEABF
:1006F000500E50F1000041EB045170BD06F0004671
:1007000046EA010140EA020081EA0301B4EB5C041D
:10071000C2BFD4EB0C0541EA045170BD41F4801115
:100720004FF0000E013C00F3AB8014F1360FDEBF3A
:10073000002001F0004170BDC4F10004203C35DA16
:100740000C341BDC04F11404C4F1200500FA05F399
:1007500020FA04F001FA05F240EA020001F000423A
:1007600021F0004110EBD37021FA04F642EB0601B0
:100770005EEA430E08BF20EAD37070BDC4F10C04DA
:10078000C4F1200500FA04F320FA05F001FA04F29E
:1007900040EA020001F0004110EBD37041F100018A
:1007A0005EEA430E08BF20EAD37070BDC4F1200595
:1007B00000FA05F24EEA020E20FA04F301FA05F2FD
:1007C00043EA020321FA04F001F0004121FA04F2A5
:1007D00020EA020000EBD3705EEA430E08BF20EA75
:1007E000D37070BD94F0000F0FD101F000464000AF
:1007F00041EB010111F4801F08BF013CF7D041EA31
:10080000060195F0000F18BF704703F00046520034
:1008100043EB030313F4801F08BF013DF7D043EA05
:100820000603704794EA0C0F0CEA135518BF95EABB
:100830000C0F0CD050EA410618BF52EA4306D1D142
:1008400081EA030101F000414FF0000070BD50EA61
:10085000410606BF1046194652EA430619D094EAEB
:100860000C0F02D150EA013613D195EA0C0F05D1D5
:1008700052EA03361CBF104619460AD181EA030129
:1008800001F0004141F0FE4141F470014FF00000E1
:1008900070BD41F0FE4141F4780170BD70B54FF07C
:1008A000FF0C4CF4E06C1CEA11541DBF1CEA1355FC
:1008B00094EA0C0F95EA0C0F00F0A7F8A4EB0504DE
:1008C00081EA030E52EA03354FEA013100F08880D5
:1008D0004FEA03334FF0805545EA131343EA12639E
:1008E0004FEA022245EA111545EA10654FEA002653
:1008F0000EF000419D4208BF964244F1FD0404F50C
:10090000407402D25B084FEA3202B61A65EB030567
:100910005B084FEA32024FF480104FF4002CB6EB24
:10092000020E75EB030E22BFB61A754640EA0C00A4
:100930005B084FEA3202B6EB020E75EB030E22BFE4
:10094000B61A754640EA5C005B084FEA3202B6EB25
:10095000020E75EB030E22BFB61A754640EA9C00E4
:100960005B084FEA3202B6EB020E75EB030E22BFB4
:10097000B61A754640EADC0055EA060E18D04FEA72
:10098000051545EA16754FEA06164FEAC30343EA12
:1009900052734FEAC2025FEA1C1CC0D111F4801FDF
:1009A0000BD141EA00014FF000004FF0004CB6E7D8
:1009B00011F4801F04BF01430020B4F1FD0C88BF77
:1009C000BCF5E06F3FF6AFAEB5EB030C04BFB6EB82
:1009D000020C5FEA500C50F1000041EB045170BD75
:1009E0000EF0004E4EEA113114EB5C04C2BFD4EBA2
:1009F0000C0541EA045170BD41F480114FF0000E26
:100A0000013C90E645EA060E8DE60CEA135594EAA1
:100A10000C0F08BF95EA0C0F3FF43BAF94EA0C0FA4
:100A20000AD150EA01347FF434AF95EA0C0F7FF419
:100A300025AF104619462CE795EA0C0F06D152EA6D
:100A400003353FF4FDAE1046194622E750EA410651
:100A500018BF52EA43067FF4C5AE50EA41047FF462
:100A60000DAF52EA43057FF4EBAE12E74FF0FF3CC7
:100A700006E000BF4FF0010C02E000BF4FF0010C98
:100A80004DF804CD4FEA410C7FEA6C5C4FEA430C11
:100A900018BF7FEA6C5C1BD001B050EA410C0CBF60
:100AA00052EA430C91EA030F02BF90EA020F0020C2
:100AB000704710F1000F91EA030F58BF994208BF29
:100AC00090422CBFD8176FEAE37040F001007047E6
:100AD0004FEA410C7FEA6C5C02D150EA013C07D13D
:100AE0004FEA430C7FEA6C5CD6D152EA033CD3D088
:100AF0005DF8040B704700BF8446104662468C4682
:100B00001946634600E000BF01B5FFF7B7FF0028B4
:100B100048BF10F1000F01BD4DF808EDFFF7F4FFDD
:100B20000CBF012000205DF808FB00BF4DF808ED68
:100B3000FFF7EAFF34BF012000205DF808FB00BF8B
:100B40004DF808EDFFF7E0FF94BF012000205DF8AD
:100B500008FB00BF4DF808EDFFF7CEFF94BF012062
:100B600000205DF808FB00BF4DF808EDFFF7C4FF5B
:100B700034BF012000205DF808FB00BF4FEA410CA4
:100B80007FEA6C5C02D150EA013C0AD14FEA430C87
:100B90007FEA6C5C02D152EA033C02D14FF00000C4
:100BA00070474FF0010070474FEA410212F5001202
:100BB00015D211D56FF47873B3EB625212D94FEAA4
:100BC000C12343F0004343EA505311F0004F23FA8E
:100BD00002F018BF404270474FF00000704750EAE3
:100BE000013005D111F0004008BF6FF000407047A0
:100BF0004FF00000704700BF53B94AB9002908BF41
:100C000000281CBF4FF0FF314FF0FF3000F070B9EB
:100C1000ADF1080C6DE904CE00F006F8DDF804E053
:100C2000DDE9022304B070472DE9F047089E0D4628
:100C300004460F46002B4AD18A42944665D9B2FA3F
:100C400082F343B102FA03FCC3F120029F4020FA71
:100C500002F217439C404FEA1C4E1FFA8CF5B7FB7B
:100C6000FEF1220C0EFB117742EA074201FB05F070
:100C700090420AD91CEB020201F1FF3780F01C817F
:100C8000904240F2198102396244121AA4B2B2FBB6
:100C9000FEF00EFB102244EA024400FB05F5A542DB
:100CA0000AD91CEB040400F1FF3280F00781A54251
:100CB00040F204816444023840EA0140641B002190
:100CC0001EB1DC400023C6E90043BDE8F0878B423B
:100CD00008D9002E00F0ED800021C6E90005084685
:100CE000BDE8F087B3FA83F1002949D1AB4202D3C2
:100CF000824200F2F880841A65EB03020120174655
:100D0000002EE2D0C6E90047DFE702B9FFDEB2FA03
:100D100082F3002B40F090808A1A4FEA1C471FFA9A
:100D20008CFE0121B2FBF7F507FB1520220C42EAED
:100D300000420EFB05F0904208D91CEB020205F1BF
:100D4000FF3802D2904200F2CB804546121AA4B27C
:100D5000B2FBF7F007FB102244EA02440EFB00FE50
:100D6000A64508D91CEB040400F1FF3202D2A645C7
:100D700000F2BB801046A4EB0E0440EA05409FE75A
:100D8000C1F120078B4022FA07FC4CEA030C05FA5C
:100D900001F420FA07F3FD404FEA1C492343B5FB59
:100DA000F9F81FFA8CFE09FB18551C0C44EA05449F
:100DB00008FB0EF5A54202FA01F200FA01F00BD988
:100DC0001CEB040408F1FF3A80F08880A54240F251
:100DD0008580A8F102086444641B9DB2B4FBF9F35A
:100DE00009FB134445EA044403FB0EFEA64508D95B
:100DF0001CEB040403F1FF356CD2A6456AD9023B13
:100E0000644443EA0843A3FB0295A4EB0E04AC42FE
:100E1000C846AE4656D353D056B1B0EB080264EB89
:100E20000E0404FA07F7CA40CC401743C6E9007421
:100E300018460021BDE8F087C3F1200102FA03FC47
:100E400020FA01F225FA01F19D402A434FEA1C479E
:100E50001FFA8CFEB1FBF7F007FB1015110C41EAED
:100E6000054100FB0EF58D4204FA03F408D91CEB92
:100E7000010100F1FF382FD28D422DD90238614493
:100E8000491B92B2B1FBF7F507FB151142EA01428B
:100E900005FB0EF1914208D91CEB020205F1FF3867
:100EA00016D2914214D9023D6244521A45EA0041D9
:100EB00038E73146304608E73946E6E61046FBE6B5
:100EC0004845A9D2B9EB020865EB0C0E013BA3E73C
:100ED0004546EAE72B4694E74046D1E7D0467BE714
:100EE000023D624432E708460AE76444023842E7BA
:100EF000704700BF80B500AF01F0F3F900F0A4F82F
:100F000000F0EAFC00F0F8F900F08CFA00F026FBA3
:100F100000F0C4FB00F04CFC00F0EAF800F076F9B9
:100F200000F0CEFA00F078FB8021444803F0BEF8D0
:100F30000346002B14BF01230023DBB2002B0ED08D
:100F4000012210214FF0904003F0C8F80022202128
:100F50003A4803F0C3F83A4B01221A601EE04FF4FE
:100F60000061364803F0A2F80346002B14BF0123AA
:100F70000023DBB2002B0ED0012210214FF0904055
:100F800003F0ACF8002220212C4803F0A7F82C4BEA
:100F900001221A6002E02A4B00221A60284B1B68CB
:100FA000002B2CD10421254803F080F80346002BA8
:100FB0000CBF01230023DBB2002B20D010214FF007
:100FC000904003F0A3F810214FF0904003F06EF82A
:100FD0000346002B0CBF01230023DBB2002B05D0FE
:100FE00001222021154803F079F804E00022202195
:100FF000124803F073F84FF4FA7001F0E3F94FF47C
:101000008061104803F052F80346002B0CBF012307
:101010000023DBB2002B0DD080214FF0904003F075
:1010200075F84FF40061074803F070F84FF4FA7058
:1010300001F0C8F9642001F0C5F975E7000800481F
:10104000000000200004004880B594B000AF07F114
:10105000180338220021184607F0CDFA3B1D002264
:101060001A605A609A60DA601A614FF4007003F0F7
:101070008DF90123BB614FF48033FB6102237B6355
:101080000323BB630123FB6308233B6402237B64CC
:101090000223BB640223FB6407F11803184603F024
:1010A00029FA0346002B14BF01230023DBB2002BD7
:1010B00001D000F0D5FC0F237B600323BB6000232D
:1010C000FB6000233B6100237B613B1D022118462E
:1010D00003F028FD0346002B14BF01230023DBB2DD
:1010E000002B01D000F0BCFC00BF5037BD4680BDD6
:1010F00080B58CB000AF07F1240300221A605A605B
:101100009A603B1D20220021184607F074FA3D4BDF
:101110004FF0A0421A603B4B4FF400325A60394BFB
:1011200000229A60374B0022DA60364B00221A61A7
:10113000344B00225A61334B04229A61314B002216
:101140001A77304B00225A772E4B01221A622D4B10
:10115000002283F824202B4B0022DA62294B002244
:101160001A63284B002283F83820264B0022DA63CA
:10117000244B002283F84020224801F045FB03461F
:10118000002B14BF01230023DBB2002B01D000F0A1
:1011900067FC00237B6207F124031946194802F01B
:1011A00027FA0346002B14BF01230023DBB2002BD8
:1011B00001D000F055FC144B7B600623BB6002237A
:1011C000FB607F233B6104237B610023BB613B1DEC
:1011D00019460C4801F0CCFC0346002B14BF012338
:1011E0000023DBB2002B01D000F03AFC7F21054840
:1011F00002F09CF90A2001F0E5F800BF3037BD4647
:1012000080BD00BFF40100204000201980B588B0E7
:1012100000AF3B4620220021184607F0ECF9334B83
:10122000334A1A60314B4FF400325A602F4B002280
:101230009A602E4B0022DA602C4B00221A612B4B55
:1012400000225A61294B04229A61284B00221A7706
:10125000264B00225A77254B01221A62234B00228B
:1012600083F82420214B0022DA62204B00221A63EB
:101270001E4B002283F838201C4B0022DA631B4BE4
:10128000002283F84020194801F0BEFA0346002BE3
:1012900014BF01230023DBB2002B01D000F0E0FBE0
:1012A000144B3B6006237B600023BB607F23FB6005
:1012B00004233B6100237B613B4619460B4801F048
:1012C00057FC0346002B14BF01230023DBB2002B85
:1012D00001D000F0C5FB7F21044802F027F90A2065
:1012E00001F070F800BF2037BD4680BD60020020CD
:1012F000000100508000501D80B586B000AF454B06
:1013000023221A60434B4FF080425A60414B002227
:101310009A60404B4FF40022DA603E4B00221A6183
:101320003C4B00225A613B4B4FF400129A61394BFF
:101330000022DA61374B00221A62374B23221A60EF
:10134000354B4FF080425A60334B00229A60324B4B
:101350004FF40022DA60304B00221A612E4B00223B
:101360005A612D4B4FF400129A612C4B2C4A1A6093
:101370002A4B00225A60294B00229A60274B0022F8
:10138000DA60264B00221A74244B00225A74234B35
:1013900000229A74214B01225A61204B01229A614A
:1013A0001E4B6E22DA611D4B11221A621B4B012269
:1013B0005A621A4B01229A62184B2022DA62174BAA
:1013C00001221A63154B00225A63144B00229A63C0
:1013D000124B0022DA63114802F002FB0346002B95
:1013E00014BF01230023DBB2002B01D000F038FB37
:1013F0000A4802F04FFC0346002B14BF01230023D0
:10140000DBB2002B01D000F02BFB00BF1837BD462C
:1014100080BD00BF7C05002054050020CC020020C8
:101420000064004080B500AF224B234A1A60214B74
:10143000224A5A601F4B00229A601E4B0122DA603A
:101440001C4B00221A611B4B00225A61194B0022CF
:101450009A61184B0022DA61164B00221A62154875
:1014600002F06EFE0346002B14BF01230023DBB203
:10147000002B01D000F0F4FA00210E4802F0EFFE3C
:101480000346002B14BF01230023DBB2002B01D045
:1014900000F0E6FA0021074802F02CFF0346002B7B
:1014A00014BF01230023DBB2002B01D000F0D8FAD7
:1014B00000BF80BD30030020005800407321600051
:1014C00080B500AF224B234A1A60214B224A5A6052
:1014D0001F4B00229A601E4B0122DA601C4B002237
:1014E0001A611B4B00225A61194B00229A61184B5A
:1014F0000022DA61164B00221A62154802F020FE23
:101500000346002B14BF01230023DBB2002B01D0C4
:1015100000F0A6FA00210E4802F0A1FE0346002BBF
:1015200014BF01230023DBB2002B01D000F098FA96
:101530000021074802F0DEFE0346002B14BF012302
:101540000023DBB2002B01D000F08AFA00BF80BD7F
:101550007C030020007800407321600080B500AF5C
:101560002B4B2C4A1A602A4B4FF4E1325A60284B1D
:1015700000229A60264B0022DA60254B00221A6175
:10158000234B0C225A61224B00229A61204B0022ED
:101590001A621F4B00225A621D4B00229A621C489D
:1015A00005F0CCFC0346002B14BF01230023DBB263
:1015B000002B01D000F054FA0021154806F0F8F98C
:1015C0000346002B14BF01230023DBB2002B01D004
:1015D00000F046FA00210E4806F028FA0346002BD8
:1015E00014BF01230023DBB2002B01D000F038FA36
:1015F000074806F0A4F90346002B14BF012300237B
:10160000DBB2002B01D000F02BFA00BF80BD00BF81
:10161000C80300200080004080B500AF1D4B1E4A6B
:101620001A601C4B4FF482725A601A4B00229A6067
:10163000184B4FF4E062DA60164B00221A61154B2A
:1016400000225A61134B4FF480229A61114B002201
:10165000DA61104B00221A620E4B00225A620D4BC7
:1016600000229A620B4B0722DA620A4B00221A63AD
:10167000084B08225A63074803F0A8FE0346002BD4
:1016800014BF01230023DBB2002B01D000F0E8F9E6
:1016900000BF80BD580400200038004080B58CB0E9
:1016A00000AF07F1200300221A605A609A60DA60E6
:1016B00007F1140300221A605A609A603B1D002251
:1016C0001A605A609A60DA60384B4FF080421A60B4
:1016D000364B3F225A60354B00229A60334B4FF015
:1016E000FF32DA60314B00221A61304B00229A61DE
:1016F0002E4803F016FF0346002B14BF01230023DE
:10170000DBB2002B01D000F0ABF94FF480533B6209
:1017100007F120031946254804F058FC0346002B26
:1017200014BF01230023DBB2002B01D000F098F995
:101730001E4804F0BBF80346002B14BF012300230E
:10174000DBB2002B01D000F08BF900237B6100237A
:10175000FB6107F114031946144805F01BFB03460F
:10176000002B14BF01230023DBB2002B01D000F0BB
:1017700077F90A237B600123BB600023FB60002311
:101780003B613B1D00221946084804F06FFA0346EE
:10179000002B14BF01230023DBB2002B01D000F08B
:1017A0005FF900BF3037BD4680BD00BFBC040020DC
:1017B00080B58EB000AF07F1280300221A605A608E
:1017C0009A60DA6007F11C0300221A605A609A607E
:1017D0003B4600221A605A609A60DA601A615A61C8
:1017E0009A613B4B3B4A1A60394B3F225A60384B57
:1017F00000229A60364B2722DA60354B00221A61AC
:10180000334B00229A61324803F08BFE0346002BD3
:1018100014BF01230023DBB2002B01D000F020F91C
:101820004FF48053BB6207F128031946284804F09F
:10183000CDFB0346002B14BF01230023DBB2002B9A
:1018400001D000F00DF9224803F0C2FE0346002B40
:1018500014BF01230023DBB2002B01D000F000F9FC
:101860000023FB6100237B6207F11C031946184823
:1018700005F090FA0346002B14BF01230023DBB2CE
:10188000002B01D000F0ECF860233B601E237B604E
:101890000023BB6000233B613B46002219460C48F5
:1018A00004F080FA0346002B14BF01230023DBB2AF
:1018B000002B01D000F0D4F80021054803F0EAFE27
:1018C000034800F0A3FB00BF3837BD4680BD00BF12
:1018D000080500200004004080B58AB000AF07F181
:1018E000140300221A605A609A60DA601A61594B38
:1018F000DB6C584A43F02003D364564BDB6C03F097
:1019000020033B613B69534BDB6C524A43F00403B9
:10191000D364504BDB6C03F00403FB60FB684D4B5E
:10192000DB6C4C4A43F00103D3644A4BDB6C03F09D
:101930000103BB60BB68474BDB6C464A43F00203C4
:10194000D364444BDB6C03F002037B607B680022B2
:1019500040F282614FF0904002F0C0FB00224FF451
:101960008C613D4802F0BAFB002240F607013B487B
:1019700002F0B4FB012210214FF0904002F0AEFBC8
:1019800040F684037B610023BB610023FB6107F108
:1019900014031946304802F007FA02237B61112331
:1019A000BB610023FB6100233B6207F1140319466E
:1019B0004FF0904002F0F8F94FF4D2637B610123BD
:1019C000BB610023FB6100233B6207F1140319464E
:1019D0004FF0904002F0E8F960237B610123BB6186
:1019E0000023FB6100233B6207F1140319461A48E8
:1019F00002F0DAF940F607037B610123BB610023A3
:101A0000FB6100233B6207F114031946134802F0FF
:101A1000CBF94FF480637B610023BB610023FB6142
:101A200007F1140319460D4802F0BEF94FF4806324
:101A30007B611123BB610023FB6100233B6207F143
:101A400014031946044802F0AFF900BF2837BD4619
:101A500080BD00BF0010024000080048000400489C
:101A600080B400AF72B600BFFEE7000080B582B060
:101A700000AF0F4B1B6E0E4A43F0010313660C4B75
:101A80001B6E03F001037B607B68094B9B6D084A6A
:101A900043F080539365064B9B6D03F080533B608E
:101AA0003B6802F017FD00BF0837BD4680BD00BF90
:101AB0000010024080B5A0B000AF786007F16C0361
:101AC00000221A605A609A60DA601A6107F11C03FA
:101AD00050220021184606F08EFD7B681B68B3F18A
:101AE000A04F3DD14FF40043FB614FF00053FB6525
:101AF00007F11C03184603F02DFA0346002B01D012
:101B0000FFF7AEFF394B1B680133384A1360374B80
:101B10001B68012B0BD1364BDB6C354A43F4005369
:101B2000D364334BDB6C03F40053BB61BB69304BB4
:101B3000DB6C2F4A43F00403D3642D4BDB6C03F0C2
:101B400004037B617B690323FB6603233B6700235C
:101B50007B6707F16C031946264802F025F941E03E
:101B60007B681B68244A93423CD14FF40043FB61DD
:101B70004FF00053FB6507F11C03184603F0EAF928
:101B80000346002B01D0FFF76BFF184B1B68013396
:101B9000164A1360154B1B68012B0BD1144BDB6CE1
:101BA000134A43F40053D364114BDB6C03F400532A
:101BB0003B613B690E4BDB6C0D4A43F00403D3647D
:101BC0000B4BDB6C03F00403FB60FB680223FB663A
:101BD00003233B6700237B6707F16C031946054825
:101BE00002F0E2F800BF8037BD4680BDA0050020AE
:101BF00000100240000800480001005080B59EB06F
:101C000000AF786007F1640300221A605A609A609E
:101C1000DA601A6107F1140350220021184606F019
:101C2000EAFC7B681B68204A934239D14FF4805309
:101C30007B614FF00073BB6407F11403184603F097
:101C400089F90346002B01D0FFF70AFF174B9B6D64
:101C5000164A43F000739365144B9B6D03F00073B9
:101C60003B613B69114BDB6C104A43F00103D364C9
:101C70000E4BDB6C03F00103FB60FB684FF4C053B9
:101C80007B660223BB660023FB6600233B670923B8
:101C90007B6707F1640319464FF0904002F084F827
:101CA00000BF7837BD4680BD006400400010024090
:101CB00080B5A0B000AF786007F16C0300221A6015
:101CC0005A609A60DA601A6107F11C035022002101
:101CD000184606F090FC7B681B684C4A934254D12E
:101CE0008023FB610023FB6307F11C03184603F00C
:101CF00031F90346002B01D0FFF7B2FE444BDB6CF9
:101D0000434A43F00403D364414BDB6C03F0040308
:101D1000BB61BB693E4BDB6C3D4A43F00103D364BE
:101D20003B4BDB6C03F001037B617B691023FB669B
:101D300012233B6700237B670023BB670423FB67F9
:101D400007F16C031946334802F02EF84FF4807304
:101D5000FB6612233B6700237B670023BB670423DA
:101D6000FB6707F16C0319464FF0904002F01CF836
:101D7000274B9B6D264A43F480039365244B9B6D50
:101D800003F480033B613B693CE07B681B68224AAB
:101D9000934237D14FF48073FB6100233B6407F11A
:101DA0001C03184603F0D6F80346002B01D0FFF7BA
:101DB00057FE174BDB6C164A43F00403D364144BF5
:101DC000DB6C03F00403FB60FB684FF44073FB66BD
:101DD00012233B6700237B670023BB670823FB6755
:101DE00007F16C0319460B4801F0DEFF084B9B6DB1
:101DF000074A43F080439365054B9B6D03F0804396
:101E0000BB60BB6800BF8037BD4680BD0058004046
:101E100000100240000800480078004080B59EB0E5
:101E200000AF786007F1640300221A605A609A607C
:101E3000DA601A6107F1140350220021184606F0F7
:101E4000DAFB7B681B681F4A934236D120237B61F3
:101E50000023FB6207F11403184603F07BF80346E6
:101E6000002B01D0FFF7FCFD174BDB6D164A43F04A
:101E70000103D365144BDB6D03F001033B613B6948
:101E8000114BDB6C104A43F00103D3640E4BDB6C47
:101E900003F00103FB60FB680C237B660223BB6637
:101EA0000023FB6600233B670C237B6707F1640379
:101EB00019464FF0904001F077FF00BF7837BD46DC
:101EC00080BD00BF008000400010024080B58AB095
:101ED00000AF786007F1140300221A605A609A601C
:101EE000DA601A617B681B68174A934228D1174B46
:101EF0009B6D164A43F480439365144B9B6D03F42A
:101F000080433B613B69114BDB6C104A43F0020399
:101F1000D3640E4BDB6C03F00203FB60FB684FF4F1
:101F200070437B610223BB610023FB6100233B62A2
:101F300005237B6207F114031946054801F034FFBD
:101F400000BF2837BD4680BD003800400010024069
:101F50000004004880B58AB000AF786007F1140330
:101F600000221A605A609A60DA601A617B681B6806
:101F7000B3F1804F31D1234B9B6D224A43F00103D3
:101F80009365204B9B6D03F001033B613B691D4B47
:101F9000DB6C1C4A43F00103D3641A4BDB6C03F087
:101FA0000103FB60FB6820237B610223BB610023EC
:101FB000FB6100233B6201237B6207F11403194696
:101FC0004FF0904001F0F0FE002200211C2001F0B3
:101FD000D2FC1C2001F0E9FC10E07B681B680A4A77
:101FE00093420BD1074B9B6D064A43F00203936566
:101FF000044B9B6D03F00203BB60BB6800BF283736
:10200000BD4680BD001002400004004080B588B08D
:1020100000AF786007F10C0300221A605A609A60E2
:10202000DA601A617B681B68114A93421CD1114B1C
:10203000DB6C104A43F00103D3640E4BDB6C03F0FE
:102040000103BB60BB684023FB6002233B610023AC
:102050007B610023BB610223FB6107F10C0319467E
:102060004FF0904001F0A0FE00BF2037BD4680BD7C
:10207000000400400010024080B400AFFEE780B4CE
:1020800000AFFEE780B400AFFEE780B400AFFEE72C
:1020900080B400AFFEE780B400AF00BFBD465DF87E
:1020A000047B704780B400AF00BFBD465DF8047B81
:1020B000704780B400AF00BFBD465DF8047B704739
:1020C00080B500AF00F060F900BF80BD80B500AF03
:1020D000024803F04CFC00BF80BD00BFBC040020E0
:1020E00080B400AF01231846BD465DF8047B7047FD
:1020F00080B582B000AF7860396006F0CFFA034651
:1021000016221A604FF0FF3318460837BD4680BDCF
:1021100080B582B000AF78604FF0FF317868FFF78C
:10212000E7FFFEE780B586B000AFF860B9607A607F
:1021300000237B610AE0AFF300800146BB685A1CB4
:10214000BA60CAB21A707B6901337B617A697B68B5
:102150009A42F0DB7B6818461837BD4680BD80B5D3
:1021600086B000AFF860B9607A6000237B6109E057
:10217000BB685A1CBA601B781846AFF300807B69B5
:1021800001337B617A697B689A42F1DB7B68184690
:102190001837BD4680BD80B483B000AF78604FF083
:1021A000FF3318460C37BD465DF8047B704780B49A
:1021B00083B000AF786039603B684FF400525A60DA
:1021C000002318460C37BD465DF8047B704780B489
:1021D00083B000AF7860012318460C37BD465DF828
:1021E000047B704780B485B000AFF860B9607A6056
:1021F000002318461437BD465DF8047B7047000085
:1022000080B586B000AF7860144A154BD31A7B6155
:102210007B693B61134B1B68002B02D1114B124AA7
:102220001A60104B1A687B6813443A699A4207D2C5
:1022300006F034FA03460C221A604FF0FF3309E02F
:10224000084B1B68FB60074B1A687B681344054A00
:102250001360FB6818461837BD4680BD00C00120DA
:1022600000040000A4050020F806002080B400AFA0
:10227000064BD3F88830054A43F47003C2F888301F
:1022800000BFBD465DF8047B704700BF00ED00E075
:102290000D4885460D480E490E4A002302E0D458E9
:1022A000C4500433C4188C42F9D30B4A0B4C00239E
:1022B00001E013600432A242FBD3FFF7D7FF06F020
:1022C000F3F9FEF717FEFEE700C001200000002032
:1022D000D801002074A80008D8010020F8060020CA
:1022E000FEE780B582B000AF0023FB71032001F050
:1022F00037FB0F2000F00EF80346002B02D001231D
:10230000FB7101E0FFF7B2FBFB7918460837BD46C9
:1023100080BD000080B584B000AF78600023FB73FF
:10232000164B1B68002B22D0154B1A68134B1B68E9
:102330004FF47A71B1FBF3F3B2FBF3F3184601F0FB
:1023400042FB0346002B0FD17B680F2B09D80022DC
:1023500079684FF0FF3001F00EFB0A4A7B6813608A
:1023600007E00123FB7304E00123FB7301E0012379
:10237000FB73FB7B18461037BD4680BD0C00002068
:10238000040000200800002080B400AF054B1A684C
:10239000054B1B681344034A136000BFBD465DF83C
:1023A000047B7047A80500200C00002080B400AF1B
:1023B000034B1B681846BD465DF8047B704700BFA1
:1023C000A805002080B584B000AF7860FFF7EEFF6D
:1023D000B8607B68FB60FB68B3F1FF3F04D0094B3A
:1023E0001B68FA681344FB6000BFFFF7DFFF02467B
:1023F000BB68D31AFA689A42F7D800BF00BF1037FB
:10240000BD4680BD0C00002080B483B000AF786072
:1024100039607B689B6823F47C123B681A437B68B5
:102420009A6000BF0C37BD465DF8047B704780B4EE
:1024300083B000AF786039607B689B6823F0E072FE
:102440003B681A437B689A6000BF0C37BD465DF855
:10245000047B704780B483B000AF78607B689B6872
:1024600003F0E07318460C37BD465DF8047B7047F7
:1024700080B487B000AFF860B9607A603B60FB68F9
:1024800060331A46BB689B0013447B617B691A6802
:10249000084B13407A6802F0F8413A680A43134344
:1024A00043F000427B691A6000BF1C37BD465DF8EF
:1024B000047B704700F0FF0380B485B000AF786004
:1024C00039607B6860331A463B689B001344FB60AD
:1024D000FB681B6803F0F84318461437BD465DF8E7
:1024E000047B704780B487B000AFF860B9607A6051
:1024F000FB6860331A46BB689B0013447B617B69B1
:102500001B6823F000427B681A437B691A6000BF96
:102510001C37BD465DF8047B704780B487B000AFC0
:10252000F860B9607A60FB6860331A46BB689B004C
:1025300013447B617B691B6823F080727B681A43BC
:102540007B691A6000BF1C37BD465DF8047B70478D
:1025500080B487B000AFF860B9607A60FB68603320
:102560001A46BB689B0013447B617B691B6823F0A0
:1025700000727B681A437B691A6000BF1C37BD4636
:102580005DF8047B704780B483B000AF7860396039
:102590007B685B6923F000423B681A437B685A61A1
:1025A00000BF0C37BD465DF8047B704780B487B030
:1025B00000AFF860B9607A60FB6830331A46BB68D8
:1025C0001B0A9B0003F00C0313447B617B691A68B0
:1025D000BB6803F01F031F2101FA03F3DB431A401A
:1025E0007B689B0E03F01F01BB6803F01F0301FA19
:1025F00003F31A437B691A6000BF1C37BD465DF8C0
:10260000047B704780B487B000AFF860B9607A602F
:10261000FB6814331A46BB685B0E9B0003F004038F
:1026200013447B617B691A68BB681B0D03F01F03B1
:10263000072101FA03F3DB431A40BB681B0D03F0CB
:102640001F03796801FA03F31A437B691A6000BF1C
:102650001C37BD465DF8047B7047000080B485B030
:1026600000AFF860B9607A607B680F4A93420AD184
:10267000FB68D3F8B020BB68C3F312031A43FB68AE
:10268000C3F8B0200AE0FB68D3F8B020BB68C3F3FE
:102690001203DB431A40FB68C3F8B02000BF1437B5
:1026A000BD465DF8047B704700007F4080B483B076
:1026B00000AF78607B689B6823F0204323F03F03E2
:1026C0007A68936000BF0C37BD465DF8047B7047A5
:1026D00080B483B000AF78607B689B6803F00053E0
:1026E000B3F1005F01D1012300E0002318460C374D
:1026F000BD465DF8047B704780B483B000AF78605E
:102700007B689B6823F0104323F03F0343F0805223
:102710007B689A6000BF0C37BD465DF8047B70474C
:1027200080B483B000AF78607B689B6803F080530F
:10273000B3F1805F01D1012300E0002318460C377C
:10274000BD465DF8047B704780B483B000AF78600D
:102750007B689B6823F0004323F03F0343F00202B1
:102760007B689A6000BF0C37BD465DF8047B7047FC
:1027700080B483B000AF78607B689B6803F001038E
:10278000012B01D1012300E0002318460C37BD4680
:102790005DF8047B704780B483B000AF78607B68DD
:1027A0009B6803F00203022B01D1012300E0002308
:1027B00018460C37BD465DF8047B704780B483B083
:1027C00000AF78607B689B6803F00403042B01D1A1
:1027D000012300E0002318460C37BD465DF8047B5A
:1027E000704780B483B000AF78607B689B6803F06B
:1027F0000803082B01D1012300E0002318460C3701
:10280000BD465DF8047B704790B589B000AF786035
:102810000023FB770023BB607B68002B01D10123E1
:10282000A1E17B685B69002B7B68DB6D002B09D124
:102830007868FFF73FF97B6800221A667B68002200
:1028400083F858207B681B681846FFF741FF034652
:10285000002B04D07B681B681846FFF727FF7B68B6
:102860001B681846FFF75CFF0346002B15D17B68F9
:102870001B681846FFF740FF9A4B1B689B099A4A52
:10288000A2FB03239B0901335B00BB6002E0BB6832
:10289000013BBB60BB68002BF9D17B681B68184605
:1028A000FFF73EFF0346002B0DD17B68DB6D43F045
:1028B00010027B68DA657B681B6E43F001027B685F
:1028C0001A660123FB777B681B681846FFF776FFC3
:1028D00078617B68DB6D03F01003002B40F03A81D8
:1028E0007B69002B40F036817B68DB6D23F48173BC
:1028F00043F002027B68DA657B681B681846FFF7C5
:1029000037FF0346002B37D17B681B68B3F1A04F1C
:1029100004D07B681B68754A93420FD14FF0A040EA
:10292000FFF726FF04467148FFF722FF03462343C3
:10293000002B0CBF01230023DBB208E06C48FFF73B
:1029400017FF0346002B0CBF01230023DBB2002B33
:1029500012D07B681B68B3F1A04F04D07B681B6862
:10296000624A934201D1634A00E0634A7B685B6834
:1029700019461046FFF748FD7B685B7F5A037B686A
:10298000DB6B1A437B68DB681A437B689B681A43DE
:102990007B6893F824301B041343BB617B6893F876
:1029A0002430012B06D17B689B6A013B5B04BA692A
:1029B0001343BB617B68DB6A002B09D07B68DB6A51
:1029C00003F478727B681B6B1343BA691343BB61D2
:1029D0007B681B68DA68494B13407A681268B969EA
:1029E0000B43D3607B681B681B6923F040617B68E5
:1029F0005A6B7B681B680A431A617B681B68184620
:102A0000FFF7DCFE38617B681B681846FFF7E9FEBC
:102A1000F8603B69002B7BD1FB68002B78D17B6889
:102A20001B7F9A037B6893F838305B001343BB61CC
:102A30007B681B68DB6823F4804323F002037A6819
:102A40001268B9690B43D3607B681B69002B17D0F0
:102A50007B681B681A697B681B6842F480321A61C4
:102A60007B681B68D3F8C03023F47F5323F03F0307
:102A70007A6811697A6812680B43C2F8C03013E0B3
:102A80007B681B681A697B681B6822F480321A61B4
:102A90007B681B68D3F8C0307A68126823F47F53D0
:102AA00023F03F03C2F8C0307B6893F84030012B1D
:102AB00026D17B681B681B6923F4FF6323F00403A2
:102AC0007A68516C7A68926C11437A68D26C1143BF
:102AD0007A68126D0A431A437B681B6842F0010250
:102AE0001A6115E004000020632D3E05000100502E
:102AF0000004005000030050000700500740F0FFA2
:102B00007B681B681A697B681B6822F001021A61E6
:102B10007B685B69012B0CD17B681B681B6B23F006
:102B20000F017B681B6A5A1E7B681B680A431A6385
:102B300007E07B681B681A6B7B681B6822F00F023A
:102B40001A637B68DB6D23F0030343F001027B68AB
:102B5000DA6507E07B68DB6D43F010027B68DA65BD
:102B60000123FB77FB7F18462437BD4690BD00BF8D
:102B700080B5B6B000AF78603960002387F8D730F1
:102B80000023FB607B6893F85830012B02D10223AD
:102B900000F004BC7B68012283F858207B681B6826
:102BA0001846FFF70BFE0346002B40F0E8837B68D6
:102BB00018683B6859683B681B681A46FFF7F6FCC3
:102BC0007B681B681846FFF7F9FDC7F8D0007B68E3
:102BD0001B681846FFF705FEC7F8CC00D7F8D030C1
:102BE000002B40F0D981D7F8CC30002B40F0D481B5
:102BF0003B689B68B3F1004F0FD17B6818683B6856
:102C00001B6800221946FFF7FDFC7B681B684FF02C
:102C100000411846FFF7B7FC0EE07B6818683B6878
:102C200019683B689B681A46FFF7ECFC7B681B68D9
:102C300000211846FFF7A7FC3B685A697B681B68B0
:102C4000DB68DB0803F003035B0002FA03F3C7F859
:102C5000C8303B681B69042B22D07B6818683B682E
:102C600019693B681A68D7F8C830FFF701FC7B6820
:102C700018683B6819693B689B691A46FFF74DFC69
:102C80007B6818683B6819693B681B7F012B02D180
:102C90004FF0007300E000231A46FFF759FC7BE178
:102CA0007B681B6800211846FFF706FC0346C3F348
:102CB0001203002B0AD17B681B6800211846FFF71E
:102CC000FBFB03469B0E03F01F021EE07B681B68A4
:102CD00000211846FFF7F0FB0346C7F8BC30D7F8D1
:102CE000BC3093FAA3F3C7F8B830D7F8B830C7F8B8
:102CF000C030D7F8C030002B01D1202304E0D7F832
:102D0000C030B3FA83F3DBB21A463B681B68C3F3E7
:102D10001203002B05D13B681B689B0E03F01F03B9
:102D200018E03B681B68C7F8B030D7F8B03093FAAA
:102D3000A3F3C7F8AC30D7F8AC30C7F8B430D7F845
:102D4000B430002B01D1202304E0D7F8B430B3FA1B
:102D500083F3DBB29A4206D17B681B680022002114
:102D60001846FFF7BFFB7B681B6801211846FFF779
:102D7000A3FB0346C3F31203002B0AD17B681B6835
:102D800001211846FFF798FB03469B0E03F01F0234
:102D90001EE07B681B6801211846FFF78DFB034688
:102DA000C7F8A430D7F8A43093FAA3F3C7F8A0303B
:102DB000D7F8A030C7F8A830D7F8A830002B01D139
:102DC000202304E0D7F8A830B3FA83F3DBB21A4625
:102DD0003B681B68C3F31203002B05D13B681B68DB
:102DE0009B0E03F01F0318E03B681B68C7F8983080
:102DF000D7F8983093FAA3F3C7F89430D7F8943003
:102E0000C7F89C30D7F89C30002B01D1202304E078
:102E1000D7F89C30B3FA83F3DBB29A4206D17B68D1
:102E20001B68002201211846FFF75CFB7B681B68CA
:102E300002211846FFF740FB0346C3F31203002BA1
:102E40000AD17B681B6802211846FFF735FB034651
:102E50009B0E03F01F021EE07B681B6802211846D0
:102E6000FFF72AFB0346C7F88C30D7F88C3093FA6B
:102E7000A3F3C7F88830D7F88830C7F89030D7F870
:102E80009030002B01D1202304E0D7F89030B3FA22
:102E900083F3DBB21A463B681B68C3F31203002BB3
:102EA00005D13B681B689B0E03F01F0316E03B68CF
:102EB0001B68C7F88030D7F8803093FAA3F3FB671C
:102EC000FB6FC7F88430D7F88430002B01D1202362
:102ED00004E0D7F88430B3FA83F3DBB29A4206D128
:102EE0007B681B68002202211846FFF7FBFA7B680B
:102EF0001B6803211846FFF7DFFA0346C3F31203EA
:102F0000002B0AD17B681B6803211846FFF7D4FA0F
:102F100003469B0E03F01F0217E07B681B6803212A
:102F20001846FFF7C9FA03467B677B6F93FAA3F352
:102F30003B673B6FBB67BB6F002B01D1202303E0D6
:102F4000BB6FB3FA83F3DBB21A463B681B68C3F36B
:102F50001203002B05D13B681B689B0E03F01F0377
:102F600011E03B681B68BB66BB6E93FAA3F37B66FC
:102F70007B6EFB66FB6E002B01D1202303E0FB6E12
:102F8000B3FA83F3DBB29A4206D17B681B68002256
:102F900003211846FFF7A6FA7B681B681846FFF75F
:102FA000E7FB0346002B40F03D817B6818683B68D7
:102FB00019683B68DB681A46FFF750FB3B68DB6823
:102FC000A24A934240F02E817B6818683B681B68D8
:102FD000C3F31203002B0BD13B681B689B0E01331C
:102FE00003F01F03092B94BF01230023DBB219E078
:102FF0003B681B68FB65FB6D93FAA3F3BB65BB6D78
:103000003B663B6E002B01D1202303E03B6EB3FAFD
:1030100083F3DBB2013303F01F03092B94BF0123B9
:103020000023DBB2002B79D03B681B68C3F312038B
:10303000002B07D13B681B689B0E01339B0603F0F6
:10304000F84215E03B681B683B653B6D93FAA3F3C0
:10305000FB64FB6C7B657B6D002B01D1202303E0BF
:103060007B6DB3FA83F3DBB201339B0603F0F842C6
:103070003B681B68C3F31203002B09D13B681B6834
:103080009B0E013303F01F03012101FA03F317E044
:103090003B681B687B647B6C93FAA3F33B643B6CDB
:1030A000BB64BB6C002B01D1202303E0BB6CB3FAE3
:1030B00083F3DBB2013303F01F03012101FA03F3B1
:1030C00042EA03013B681B68C3F31203002B0AD1D9
:1030D0003B681B689B0E013303F01F0213465B0025
:1030E00013441B0518E03B681B68BB63BB6B93FA7A
:1030F000A3F37B637B6BFB63FB6B002B01D1202372
:1031000003E0FB6BB3FA83F3DBB2013303F01F027E
:1031100013465B0013441B050B437EE03B681B68B2
:10312000C3F31203002B07D13B681B689B0E0133CE
:103130009B0603F0F84215E03B681B68FB62FB6AE4
:1031400093FAA3F3BB62BB6A3B633B6B002B01D1D9
:10315000202303E03B6BB3FA83F3DBB201339B061E
:1031600003F0F8423B681B68C3F31203002B09D13C
:103170003B681B689B0E013303F01F03012101FA1A
:1031800003F317E03B681B683B623B6A93FAA3F3C7
:10319000FB61FB697B627B6A002B01D1202303E08A
:1031A0007B6AB3FA83F3DBB2013303F01F0301211F
:1031B00001FA03F342EA03013B681B68C3F31203FD
:1031C000002B0DD13B681B689B0E013303F01F02DF
:1031D00013465B0013441E3B1B0543F000731BE0CA
:1031E0003B681B687B617B6993FAA3F33B613B6996
:1031F000BB61BB69002B01D1202303E0BB69B3FA9B
:1032000083F3DBB2013303F01F0213465B00134468
:103210001E3B1B0543F000730B433A689268194646
:10322000FFF7F0F93B681A68094B1340002B00F0D8
:10323000AF807B681B68B3F1A04F04D07B681B682C
:10324000044A93420AD1044B09E000BF00007F40CA
:10325000000008800001005000030050514B184648
:10326000FFF7F8F8C7F8C4003B681B684E4A934262
:1032700004D03B681B684D4A934234D1D7F8C43020
:1032800003F40003002B2ED17B681B68B3F1A04F21
:103290007ED17B681B68B3F1A04F04D07B681B68AC
:1032A000434A934201D1434A00E03E4AD7F8C43032
:1032B00043F4000319461046FFF7B9F83E4B1B686C
:1032C0009B093E4AA2FB03239B095A1C13465B0041
:1032D00013449B00FB6002E0FB68013BFB60FB6862
:1032E000002BF9D154E03B681B68354A934220D14A
:1032F000D7F8C43003F08073002B1AD17B681B68A9
:10330000B3F1A04F44D17B681B68B3F1A04F04D048
:103310007B681B68264A934201D1264A00E0214A75
:10332000D7F8C43043F0807319461046FFF77FF892
:103330002EE03B681B68234A934229D1D7F8C4305A
:1033400003F48003002B23D17B681B68184A934247
:103350001ED07B681B68B3F1A04F04D07B681B684C
:10336000134A934201D1134A00E00E4AD7F8C43001
:1033700043F4800319461046FFF759F808E07B68CC
:10338000DB6D43F020027B68DA65012387F8D730D4
:103390007B68002283F8582097F8D7301846D83732
:1033A000BD4680BD00070050000021C31000C09042
:1033B000000100500003005004000020632D3E0572
:1033C000000052C7000084CB80B584B000AF7860A5
:1033D0007B681B681846FFF7DEF9F8607B681B689E
:1033E0001846FFF7C5F90346002B47D0FB68002BB2
:1033F00044D17B681B689B6803F00D03012B0CD143
:103400007B681B681846FFF79FF97B681B680322DF
:103410001A60FEF7CBFFB86029E07B68DB6D43F0F4
:1034200010027B68DA657B681B6E43F001027B68E3
:103430001A66012323E0FEF7B9FF0246BB68D31AE0
:10344000022B14D97B681B689B6803F00103002BD7
:103450000DD07B68DB6D43F010027B68DA657B681A
:103460001B6E43F001027B681A66012307E07B684C
:103470001B689B6803F00103002BDCD10023184676
:103480001037BD4680BD80B483B000AF78607B68E4
:103490009B6803F00103012B01D1012300E000230D
:1034A00018460C37BD465DF8047B704780B483B086
:1034B00000AF786039607B689B6823F0404323F05D
:1034C0003F033A6802F08042134343F000427B68B6
:1034D0009A6000BF0C37BD465DF8047B704780B42E
:1034E00083B000AF78607B689B6803F00043B3F162
:1034F000004F01D1012300E0002318460C37BD46E0
:103500005DF8047B704780B483B000AF78607B685F
:103510009B6803F00403042B01D1012300E0002386
:1035200018460C37BD465DF8047B704780B584B003
:1035300000AF786039600023BB607B6893F8583037
:10354000012B01D102234DE07B68012283F8582032
:103550007868FFF739FF0346FB73FB7B002B36D1FE
:103560007B68DB6D23F4885323F0020343F00202EF
:103570007B68DA657B681B6839681846FFF796FF39
:1035800014E0BB680133BB60BB68184A93420DD995
:103590007B68DB6D23F0120343F010027B68DA6571
:1035A0007B68002283F8582001231BE07B681B689E
:1035B0001846FFF794FF0346002BE2D17B68DB6DD2
:1035C00023F0030343F001027B68DA6505E07B68C2
:1035D000DB6D43F010027B68DA657B68002283F8BC
:1035E0005820FB7B18461037BD4680BD01DE040025
:1035F00090B5A1B000AF78603960002387F87F30C4
:103600007B6893F85830012B01D10223CBE07B6813
:10361000012283F8582000237B660023BB667B6869
:103620001B68B3F1A04F02D1614BBB6001E00023E6
:10363000BB60BB68002B0BD17B68DB6D43F02002C5
:103640007B68DA657B68002283F858200123AAE0B2
:10365000BB681846FFF757FFB8677B681B681846BA
:10366000FFF751FF0346002B40F08C80BB6F002B0F
:1036700040F088807B681B68B3F1A04F04D07B6862
:103680001B684B4A934201D14A4B00E04A4B7B678F
:103690003B681B68002B41D07B6F9B6823F4604222
:1036A0003B6859687B6893F838305B030B431A43D7
:1036B0007B6F9A607B681B68B3F1A04F04D07B6876
:1036C0001B683B4A93420FD14FF0A040FFF7DBFE4F
:1036D00004463748FFF7D7FE03462343002B0CBFB1
:1036E00001230023DBB208E03448FFF7CCFE034699
:1036F000002B0CBF01230023DBB2002B4CD07B6FCF
:103700009B6823F4716323F00F033A6811683A68E9
:1037100092680A431A437B6F9A603DE07B6F9B6817
:1037200023F460427B6F9A607B681B68B3F1A04F03
:1037300004D07B681B681E4A93420FD14FF0A04013
:10374000FFF7A1FE04461A48FFF79DFE03462343F8
:10375000002B0CBF01230023DBB208E01748FFF762
:1037600092FE0346002B0CBF01230023DBB2002B8B
:1037700012D07B6F9B6823F4716323F00F037A6F81
:10378000936009E07B68DB6D43F020027B68DA65BB
:10379000012387F87F3000E000BF7B68002283F8B8
:1037A000582097F87F3018468437BD4690BD00BF3B
:1037B00000010050000300500007005000040050BA
:1037C00080B485B000AF78607B6803F00703FB60CE
:1037D0000C4BDB68BB60BA684FF6FF031340BB605D
:1037E000FB681A02BB68134343F0BF6343F4003322
:1037F000BB60044ABB68D36000BF1437BD465DF8A8
:10380000047B704700ED00E080B400AF044BDB6840
:103810001B0A03F007031846BD465DF8047B70479A
:1038200000ED00E080B483B000AF0346FB7197F970
:103830000730002B0BDBFB7903F01F02074997F9D8
:1038400007305B09012000FA02F241F8232000BF93
:103850000C37BD465DF8047B704700BF00E100E017
:1038600080B483B000AF03463960FB7197F907302D
:10387000002B0ADB3B68DAB20C4997F907301201DA
:10388000D2B20B4483F800230AE03B68DAB208495D
:10389000FB7903F00F03043B1201D2B20B441A76FA
:1038A00000BF0C37BD465DF8047B704700E100E0C7
:1038B00000ED00E080B489B000AFF860B9607A60D4
:1038C000FB6803F00703FB61FB69C3F10703042BEB
:1038D00028BF0423BB61FB690433062B02D9FB69B3
:1038E000033B00E000237B614FF0FF32BB6902FA2B
:1038F00003F3DA43BB681A407B699A404FF0FF310B
:103900007B6901FA03F3D9437B680B4013431846E4
:103910002437BD465DF8047B7047000080B582B057
:1039200000AF78607B68013BB3F1807F01D3012356
:103930000FE00A4A7B68013B53600F214FF0FF30D4
:10394000FFF78EFF054B00229A60044B07221A6096
:10395000002318460837BD4680BD00BF10E000E0D8
:1039600080B582B000AF78607868FFF729FF00BFAC
:103970000837BD4680BD80B586B000AF0346B9604C
:103980007A60FB73FFF740FF78617A68B9687869FD
:10399000FFF790FF024697F90F3011461846FFF7E0
:1039A0005FFF00BF1837BD4680BD80B582B000AF55
:1039B0000346FB7197F907301846FFF733FF00BF46
:1039C0000837BD4680BD80B582B000AF78607868AA
:1039D000FFF7A4FF034618460837BD4680BD000028
:1039E00080B584B000AF78607B68002B01D10123E3
:1039F00047E17B6893F85C30DBB2002B06D17B6833
:103A0000002283F85D207868FEF7F8F87B681B6871
:103A10009A697B681B6822F010029A61FEF7C6FC67
:103A2000F86012E0FEF7C2FC0246FB68D31A0A2BCC
:103A30000BD97B681B6E43F001027B681A667B68BA
:103A4000032283F85C2001231BE17B681B689B69D0
:103A500003F00803082BE5D07B681B689A697B6834
:103A60001B6842F001029A61FEF7A0FCF86012E0C8
:103A7000FEF79CFC0246FB68D31A0A2B0BD97B6825
:103A80001B6E43F001027B681A667B68032283F891
:103A90005C200123F5E07B681B689B6903F0010350
:103AA000002BE5D07B681B689A697B681B6842F035
:103AB00002029A617B681B68744A934203D1744A7C
:103AC0007B685B6813607B681B7C012B08D17B687B
:103AD0001B689A697B681B6822F040029A6107E0C4
:103AE0007B681B689A697B681B6842F040029A6198
:103AF0007B685B7C012B08D17B681B689A697B68BB
:103B00001B6842F480429A6107E07B681B689A69EF
:103B10007B681B6822F480429A617B689B7C012B46
:103B200008D17B681B689A697B681B6822F4805205
:103B30009A6107E07B681B689A697B681B6842F49E
:103B400080529A617B681B689B6923F440717B6893
:103B50009A687B681B680A439A617B681B689A694C
:103B60007B681B6822F0A4029A617B681B681A6953
:103B70007B681B6822F010021A617B68DB68012BEE
:103B800008D17B681B689A697B681B6842F0040255
:103B90009A612CE07B68DB68002B28D07B68DB68AF
:103BA000022B1CD07B681B689A697B681B6842F0FB
:103BB00080029A617B681B681A697B681B6842F007
:103BC00010021A617B68DB68032B10D17B681B68CD
:103BD0009A697B681B6842F020029A6107E07B6863
:103BE0001B689A697B681B6842F020029A617B68B7
:103BF0009B69013B5A067B68DB69013B1B021A4348
:103C00007B681B6A013B42EA03017B685B69013BFD
:103C10001A047B681B680A43DA617B689B68B3F50A
:103C2000407F15D17B689B6A5A1E7B68DB6A013B2B
:103C30001B021A437B681B6B013B1B0142EA030119
:103C40007B685B6A013B1A047B681B680A43DA6085
:103C50007B681B68D3F8C0107B68DA6B7B681B68D5
:103C60000A43C3F8C020786800F03CF87B68002263
:103C70009A657B6800221A667B68012283F85C20C3
:103C8000002318461037BD4680BD00BF00640040C9
:103C90000065004080B483B000AF78607B6893F823
:103CA0005C30DBB2012B10D17B68022283F85C20F0
:103CB0007B681B689A697B681B6822F001029A6125
:103CC0007B6800221A66002306E07B681B6E43F0C7
:103CD00004027B681A66012318460C37BD465DF85E
:103CE000047B704780B485B000AF78602C4BBB601C
:103CF0007B681B682B4A934203D1BB6803F554735E
:103D0000BB607B68BA681A647B681B68D3F8803034
:103D100023F4F8117B685B6B1A047B681B680A4309
:103D2000C3F88020BB6803F170027B685A647B682B
:103D30001B68D3F8803023F070617B689B6B1A0698
:103D40007B681B680A43C3F88020BB6803F1B0029C
:103D50007B689A64BB6803F5C4727B68DA64BB68ED
:103D600003F518727B681A65BB6803F51E727B68E1
:103D70005A65BB68FB6005E0FB6800221A60FB68BF
:103D80000433FB60BB6803F55473FA689A42F3D3BB
:103D900000BF00BF1437BD465DF8047B704700BF0D
:103DA00000A400400068004080B487B000AF786095
:103DB000396000237B615AE13B681A6801217B6905
:103DC00001FA03F31340FB60FB68002B00F04C8109
:103DD0003B685B6803F00303012B05D03B685B681D
:103DE00003F00303022B30D17B689B683B617B6946
:103DF0005B00032202FA03F3DB433A6913403B61A1
:103E00003B68DA687B695B0002FA03F33A691343A3
:103E10003B617B683A699A607B685B683B61012221
:103E20007B6902FA03F3DB433A6913403B613B6869
:103E30005B681B0903F001027B6902FA03F33A692C
:103E400013433B617B683A695A603B685B6803F0E7
:103E50000303032B17D07B68DB683B617B695B0046
:103E6000032202FA03F3DB433A6913403B613B68E8
:103E70009A687B695B0002FA03F33A6913433B617A
:103E80007B683A69DA603B685B6803F00303022BE6
:103E900023D17B69DA087B68083253F822303B6112
:103EA0007B6903F007039B000F2202FA03F3DB4355
:103EB0003A6913403B613B681A697B6903F0070369
:103EC0009B0002FA03F33A6913433B617B69DA080A
:103ED0007B680832396943F822107B681B683B61B4
:103EE0007B695B00032202FA03F3DB433A69134068
:103EF0003B613B685B6803F003027B695B0002FA8D
:103F000003F33A6913433B617B683A691A603B6883
:103F10005B6803F44033002B00F0A6805B4B1B6E04
:103F20005A4A43F001031366584B1B6E03F001031A
:103F3000BB60BB68564A7B699B08023352F823304A
:103F40003B617B6903F003039B000F2202FA03F33A
:103F5000DB433A6913403B617B68B3F1904F1FD05C
:103F60007B684C4A934219D07B684B4A934213D0EA
:103F70007B684A4A93420DD07B68494A934207D0F6
:103F80007B68484A934201D105230AE0062308E0F2
:103F9000042306E0032304E0022302E0012300E0FF
:103FA00000237A6902F00302920093403A691343B6
:103FB0003B6137497B699B0802333A6941F823200A
:103FC000394B9B683B61FB68DB433A6913403B61BB
:103FD0003B685B6803F48013002B03D03A69FB68ED
:103FE00013433B61304A3B6993602F4BDB683B6175
:103FF000FB68DB433A6913403B613B685B6803F451
:104000000013002B03D03A69FB6813433B61264A37
:104010003B69D360244B5B683B61FB68DB433A69D7
:1040200013403B613B685B6803F40033002B03D013
:104030003A69FB6813433B611B4A3B6953601A4B67
:104040001B683B61FB68DB433A6913403B613B689B
:104050005B6803F48033002B03D03A69FB68134399
:104060003B61114A3B6913607B6901337B613B68AB
:104070001A687B6922FA03F3002B7FF49DAE00BF20
:1040800000BF1C37BD465DF8047B7047001002403E
:10409000000001400004004800080048000C0048EF
:1040A00000100048001400480004014080B485B0AE
:1040B00000AF78600B467B807B681A697B88134071
:1040C000002B02D00123FB7301E00023FB73FB7B79
:1040D00018461437BD465DF8047B704780B483B042
:1040E00000AF78600B467B8013467B707B78002B9B
:1040F00003D07A887B689A6102E07A887B689A624A
:1041000000BF0C37BD465DF8047B704780B485B0B6
:1041100000AF78600B467B807B685B69FB607A88C8
:10412000FB6813401A04FB68D9437B880B401A4391
:104130007B689A6100BF1437BD465DF8047B704709
:1041400080B582B000AF78607B68002B01D101237D
:1041500081E07B6893F84130DBB2002B06D17B68AD
:10416000002283F840207868FDF7A2FD7B682422B6
:1041700083F841207B681B681A687B681B6822F003
:1041800001021A607B685A687B681B6822F07062C3
:104190001A617B681B689A687B681B6822F400427E
:1041A0009A607B68DB68012B07D17B689A687B6823
:1041B0001B6842F400429A6006E07B689A687B685C
:1041C0001B6842F404429A607B68DB68022B04D1CE
:1041D0007B681B684FF400625A607B681B685B68F1
:1041E0007A68126843F0007343F4004353607B68BD
:1041F0001B68DA687B681B6822F40042DA607B681F
:104200001A697B685B6942EA03017B689B691A0251
:104210007B681B680A43DA607B68D9697B681A6A25
:104220007B681B680A431A607B681B681A687B6896
:104230001B6842F001021A607B6800225A647B68A6
:10424000202283F841207B6800221A637B680022C9
:1042500083F84220002318460837BD4680BD80B44D
:1042600083B000AF786039607B6893F84130DBB28F
:10427000202B38D17B6893F84030012B01D10223E9
:1042800032E07B68012283F840207B68242283F897
:1042900041207B681B681A687B681B6822F001025A
:1042A0001A607B681B681A687B681B6822F480525E
:1042B0001A607B681B6819687B681B683A680A4348
:1042C0001A607B681B681A687B681B6842F00102F1
:1042D0001A607B68202283F841207B68002283F8E3
:1042E0004020002300E0022318460C37BD465DF84D
:1042F000047B704780B485B000AF786039607B681C
:1043000093F84130DBB2202B39D17B6893F84030F1
:10431000012B01D1022333E07B68012283F8402086
:104320007B68242283F841207B681B681A687B68BD
:104330001B6822F001021A607B681B681B68FB6027
:10434000FB6823F47063FB603B681B02FA6813434D
:10435000FB607B681B68FA681A607B681B681A68D8
:104360007B681B6842F001021A607B68202283F898
:1043700041207B68002283F84020002300E00223D4
:1043800018461437BD465DF8047B704780B485B08D
:1043900000AF78607B68002B41D14B4B1B6803F466
:1043A000C063B3F5806F31D1474BD3F88030464AB4
:1043B00023F48073C2F88030434B1B6823F4C0633E
:1043C000414A43F400731360404B1B68322202FBE6
:1043D00003F33F4AA2FB03239B0C0133FB6002E083
:1043E000FB68013BFB60384B5B6903F48063B3F50A
:1043F000806F02D1FB68002BF2D1334B5B6903F471
:104400008063B3F5806F58D1032357E02E4BD3F868
:1044100080302D4A23F48073C2F880304DE07B68F1
:10442000B3F5007F41D1284B1B6803F4C063B3F59B
:10443000806F31D1244BD3F88030234A43F480730A
:10444000C2F88030204B1B6823F4C0631E4A43F43B
:10445000007313601D4B1B68322202FB03F31C4ADE
:10446000A2FB03239B0C0133FB6002E0FB68013BD2
:10447000FB60154B5B6903F48063B3F5806F02D179
:10448000FB68002BF2D1104B5B6903F48063B3F53A
:10449000806F12D1032311E00B4BD3F880300A4A0E
:1044A00043F48073C2F8803007E0074B1B6823F4A5
:1044B000C063054A43F48063136000231846143731
:1044C000BD465DF8047B704700700040040000208A
:1044D00083DE1B4380B400AF054B9B68044A43F462
:1044E0008043936000BFBD465DF8047B704700BF0A
:1044F0000070004080B588B000AF78607B68002B0A
:1045000001D1012306E37B681B6803F00103002B44
:1045100075D0974B9B6803F00C03BB61944BDB6831
:1045200003F003037B61BB690C2B02D17B69032B76
:1045300002D0BB69082B0BD18D4B1B6803F40033F1
:10454000002B5BD07B685B68002B57D10123E1E235
:104550007B685B68B3F5803F06D1854B1B68844A56
:1045600043F4803313601DE07B685B68B3F5A02FD4
:104570000CD17F4B1B687E4A43F4802313607C4B35
:104580001B687B4A43F4803313600BE0784B1B6855
:10459000774A23F480331360754B1B68744A23F405
:1045A000802313607B685B68002B13D0FDF7FEFE51
:1045B000386108E0FDF7FAFE02463B69D31A642B26
:1045C00001D90323A6E26A4B1B6803F40033002BD6
:1045D000F0D014E0FDF7EAFE386108E0FDF7E6FEF2
:1045E00002463B69D31A642B01D9032392E2604B44
:1045F0001B6803F40033002BF0D100E000BF7B68A0
:104600001B6803F00203002B75D0594B9B6803F025
:104610000C03BB61564BDB6803F003037B61BB6992
:104620000C2B02D17B69022B02D0BB69042B1FD15A
:104630004F4B1B6803F48063002B05D07B68DB685D
:10464000002B01D1012365E2494B5B6823F0FE4258
:104650007B681B691B06464913434B60454B1B682F
:104660001846FDF757FE0346002B43D0012351E2C5
:104670007B68DB68002B23D03D4B1B683C4A43F42E
:1046800080731360FDF792FE386108E0FDF78EFE3F
:1046900002463B69D31A022B01D903233AE2344B79
:1046A0001B6803F48063002BF0D0314B5B6823F070
:1046B000FE427B681B691B062D4913434B601AE0C1
:1046C0002B4B1B682A4A23F480731360FDF76EFEA0
:1046D000386108E0FDF76AFE02463B69D31A022BF7
:1046E00001D9032316E2224B1B6803F48063002BDD
:1046F000F0D100E000BF7B681B6803F00803002BCB
:1047000041D07B685B69002B1CD0194BD3F89430E7
:10471000174A43F00103C2F89430FDF747FE3861B1
:1047200008E0FDF743FE02463B69D31A022B01D98C
:104730000323EFE10E4BD3F8943003F00203002B78
:10474000EFD020E00A4BD3F89430094A23F001035C
:10475000C2F89430FDF72AFE38610DE0FDF726FE21
:1047600002463B69D31A022B06D90323D2E100BFCC
:1047700000100240080000208C4BD3F8943003F066
:104780000203002BEAD17B681B6803F00403002BB3
:1047900000F0A6800023FB77844B9B6D03F08053D1
:1047A000002B01D1012300E00023002B0DD07F4B13
:1047B0009B6D7E4A43F0805393657C4B9B6D03F069
:1047C0008053FB60FB680123FB77794B1B6803F484
:1047D0008073002B18D1764B1B68754A43F48073A5
:1047E0001360FDF7E3FD386108E0FDF7DFFD0246E9
:1047F0003B69D31A022B01D903238BE16C4B1B6855
:1048000003F48073002BF0D07B689B68012B08D1E8
:10481000664BD3F89030654A43F00103C2F89030FC
:1048200024E07B689B68052B10D1604BD3F8903057
:104830005E4A43F00403C2F890305C4BD3F89030EA
:104840005A4A43F00103C2F890300FE0574BD3F8B7
:104850009030564A23F00103C2F89030534BD3F8FE
:104860009030524A23F00403C2F890307B689B6872
:10487000002B16D0FDF79AFD38610AE0FDF796FD92
:1048800002463B69D31A41F28832934201D903238D
:1048900040E1464BD3F8903003F00203002BEDD0FB
:1048A00015E0FDF783FD38610AE0FDF77FFD024664
:1048B0003B69D31A41F28832934201D9032329E19B
:1048C0003A4BD3F8903003F00203002BEDD1FB7F7D
:1048D000012B05D1354B9B6D344A23F080539365F2
:1048E0007B681B6803F02003002B3CD07B689B692E
:1048F000002B1CD02D4BD3F898302C4A43F00103E9
:10490000C2F89830FDF752FD386108E0FDF74EFD22
:1049100002463B69D31A022B01D90323FAE0234B49
:10492000D3F8983003F00203002BEFD01BE01F4BAD
:10493000D3F898301D4A23F00103C2F89830FDF7F0
:1049400035FD386108E0FDF731FD02463B69D31AB9
:10495000022B01D90323DDE0144BD3F8983003F088
:104960000203002BEFD17B68DB69002B00F0D180C4
:104970000E4B9B6803F00C030C2B00F08B807B68C4
:10498000DB69022B5ED1094B1B68084A23F0807358
:104990001360FDF70BFD38610CE0FDF707FD0246E3
:1049A0003B69D31A022B05D90323B3E00010024060
:1049B00000700040594B1B6803F00073002BECD1D2
:1049C000564BDA68564B13407A68116A7A68526A15
:1049D000013A120111437A68926A120211437A680D
:1049E000126B5208013A520511437A68526B520811
:1049F000013A520611437A68D26AD2060A434749FD
:104A00001343CB60454B1B68444A43F080731360EB
:104A1000424BDB68414A43F08073D360FDF7C6FC2C
:104A2000386108E0FDF7C2FC02463B69D31A022B4D
:104A300001D903236EE0394B1B6803F00073002B90
:104A4000F0D066E0354B1B68344A23F08073136066
:104A5000324BDB68314A23F00303D3602F4BDB6812
:104A60002E4A23F0887323F48033D360FDF79EFC35
:104A7000386108E0FDF79AFC02463B69D31A022B25
:104A800001D9032346E0254B1B6803F00073002B7C
:104A9000F0D13EE07B68DB69012B01D1012339E0D5
:104AA0001E4BDB687B617B6903F003027B681B6A3A
:104AB0009A422CD17B6903F0F0027B685B6A013B70
:104AC0001B019A4223D17B6903F4FE427B689B6AF7
:104AD0001B029A421BD17B6903F078427B68DB6A38
:104AE000DB069A4213D17B6903F4C0027B681B6B1F
:104AF0005B08013B5B059A4209D17B6903F0C06208
:104B00007B685B6B5B08013B5B069A4201D001232B
:104B100000E0002318462037BD4680BD001002404B
:104B20000C809F0180B586B000AF786039600023AB
:104B30007B617B68002B01D101231EE1914B1B6837
:104B400003F00F033A689A4210D98E4B1B6823F08A
:104B50000F028C493B6813430B608A4B1B6803F0C0
:104B60000F033A689A4201D0012306E17B681B6873
:104B700003F00103002B73D07B685B68032B29D102
:104B8000814B1B6803F00073002B01D10123F4E07B
:104B900000F09CF938613B697C4A93423FD97A4BDB
:104BA0009B6803F0F003002B09D07B681B6803F0BF
:104BB0000203002B33D07B689B68002B2FD1724BF4
:104BC0009B6823F0F003704A43F0800393608023D6
:104BD0007B6124E07B685B68022B07D16A4B1B6812
:104BE00003F40033002B09D10123C6E0664B1B6898
:104BF00003F48063002B01D10123BEE000F0CEF866
:104C000038613B69614A934209D95F4B9B6823F045
:104C1000F0035D4A43F08003936080237B615A4B2D
:104C20009B6823F003027B685B68574913438B60E2
:104C3000FDF7BCFBF8600AE0FDF7B8FB0246FB6835
:104C4000D31A41F28832934201D9032395E04E4BA7
:104C50009B6803F00C027B685B689B009A42EBD177
:104C60007B681B6803F00203002B23D07B681B6862
:104C700003F00403002B05D0434B9B68424A43F4E6
:104C8000E06393607B681B6803F00803002B07D088
:104C90003D4B9B6823F47C533B4A43F4E0639360B1
:104CA000394B9B6823F0F0027B689B6836491343BD
:104CB0008B6008E07B69802B05D1334B9B68324ABF
:104CC00023F0F00393602F4B1B6803F00F033A6847
:104CD0009A421DD22B4B1B6823F00F0229493B68D7
:104CE00013430B60FDF762FBF8600AE0FDF75EFB23
:104CF0000246FB68D31A41F28832934201D903235A
:104D00003BE0204B1B6803F00F033A689A42EDD159
:104D10007B681B6803F00403002B08D01A4B9B68C8
:104D200023F4E0627B68DB68174913438B607B6880
:104D30001B6803F00803002B09D0134B9B6823F476
:104D400060527B681B69DB000F4913438B6000F0E6
:104D500025F802460C4B9B681B0903F00F030C4916
:104D6000CB5C03F01F0322FA03F30A4A13600A4BD9
:104D70001B681846FDF7CEFA034618461837BD469D
:104D800080BD00BF002002400010024000B4C404F7
:104D9000B0A40008040000200800002080B487B000
:104DA00000AF2C4B9B6803F00C03042B02D12A4B61
:104DB0003B6147E0274B9B6803F00C03082B02D1B3
:104DC000254B3B613EE0234B9B6803F00C030C2B0F
:104DD00036D1204BDB6803F00303FB601D4BDB681F
:104DE0001B0903F00F030133BB60FB68032B0CD1DD
:104DF000194ABB68B2FBF3F3164AD268120A02F0F2
:104E00007F0202FB03F37B610CE0134ABB68B2FB39
:104E1000F3F3104AD268120A02F07F0202FB03F396
:104E20007B6100BF0B4BDB685B0E03F003030133B8
:104E30005B007B607A697B68B2FBF3F33B6101E066
:104E400000233B613B6918461C37BD465DF8047B77
:104E5000704700BF001002400024F40080B400AF8F
:104E6000034B1B681846BD465DF8047B704700BFC6
:104E70000400002080B500AFFFF7F0FF0246064BAC
:104E80009B681B0A03F007030449CB5C03F01F0374
:104E900022FA03F3184680BD00100240C0A40008A7
:104EA00080B500AFFFF7DAFF0246064B9B68DB0ACE
:104EB00003F007030449CB5C03F01F0322FA03F35A
:104EC000184680BD00100240C0A4000880B487B01E
:104ED00000AF1E4BDB6803F003033B611B4BDB6839
:104EE0001B0903F00F030133FB603B69032B0CD15B
:104EF000174AFB68B2FBF3F3144AD268120A02F0B5
:104F00007F0202FB03F37B610CE0114AFB68B2FBFA
:104F1000F3F30E4AD268120A02F07F0202FB03F397
:104F20007B6100BF094BDB685B0E03F003030133B9
:104F30005B00BB607A69BB68B2FBF3F37B607B68A4
:104F400018461C37BD465DF8047B704700100240D0
:104F50000024F40080B586B000AF78600023FB74B5
:104F60000023BB747B681B6803F40023002B00F054
:104F7000988000237B74434B9B6D03F08053002B80
:104F80000DD1404B9B6D3F4A43F0805393653D4BA1
:104F90009B6D03F08053BB60BB6801237B743A4B6D
:104FA0001B68394A43F480731360FDF7FFF9F8601A
:104FB00009E0FDF7FBF90246FB68D31A022B02D980
:104FC0000323FB7405E0304B1B6803F48073002B54
:104FD000EFD0FB7C002B59D12A4BD3F8903003F44F
:104FE00040737B617B69002B1ED07B68DB6C7A6928
:104FF0009A4219D0234BD3F8903023F440737B614D
:10500000204BD3F890301F4A43F48033C2F89030DD
:105010001C4BD3F890301B4A23F48033C2F89030F5
:10502000184A7B69C2F890307B6903F00103002BBA
:1050300016D0FDF7BBF9F8600BE0FDF7B7F90246B3
:10504000FB68D31A41F28832934202D90323FB74DE
:1050500006E00C4BD3F8903003F00203002BECD0A9
:10506000FB7C002B0BD1074BD3F8903023F440721C
:105070007B68DB6C03491343C1F8903008E0FB7C8C
:10508000BB7405E00010024000700040FB7CBB7464
:105090007B7C012B05D1A74B9B6DA64A23F0805347
:1050A00093657B681B6803F00103002B0AD0A14BBA
:1050B000D3F8883023F003027B685B689D49134373
:1050C000C1F888307B681B6803F00203002B0AD00C
:1050D000984BD3F8883023F00C027B689B68954985
:1050E0001343C1F888307B681B6803F00403002B6E
:1050F0000AD0904BD3F8883023F030027B68DB680D
:105100008C491343C1F888307B681B6803F008039F
:10511000002B0AD0874BD3F8883023F0C0027B687D
:105120001B6984491343C1F888307B681B6803F00E
:105130001003002B0AD07F4BD3F8883023F4407241
:105140007B685B697B491343C1F888307B681B68C7
:1051500003F02003002B0AD0764BD3F8883023F4D9
:1051600040627B689B6973491343C1F888307B6850
:105170001B6803F04003002B0AD06E4BD3F8883035
:1051800023F440527B68DB696A491343C1F88830D5
:105190007B681B6803F08003002B0AD0654BD3F8B3
:1051A000883023F440427B681B6A62491343C1F88C
:1051B00088307B681B6803F48073002B0AD05D4B3A
:1051C000D3F8883023F440327B685B6A5949134333
:1051D000C1F888307B681B6803F40073002B0AD089
:1051E000544BD3F8883023F440227B689B6A5149A2
:1051F0001343C1F888307B681B6803F48063002B7D
:1052000015D04C4BD3F8883023F440127B68DB6A0E
:1052100048491343C1F888307B68DB6AB3F5801FC7
:1052200005D1444BDB68434A43F48013D3607B6869
:105230001B6803F40063002B15D03E4BD3F8883075
:1052400023F440027B681B6B3A491343C1F8883052
:105250007B681B6BB3F5800F05D1364BDB68354A95
:1052600043F48013D3607B681B6803F48053002BE6
:1052700015D0304BD3F8883023F040727B685B6BDD
:105280002C491343C1F888307B685B6BB3F1807F96
:1052900005D1284BDB68274A43F48013D3607B6831
:1052A0001B6803F40053002B15D0224BD3F8883031
:1052B00023F040627B689B6B1E491343C1F8883022
:1052C0007B689B6BB3F1006F05D11A4BDB68194A01
:1052D00043F48013D3607B681B6803F48043002B86
:1052E00015D0144BD3F8883023F040627B68DB6B19
:1052F00010491343C1F888307B68DB6BB3F1006F52
:1053000005D10C4BDB680B4A43F48013D3607B68F8
:105310001B6803F40043002B18D0064BD3F88830E9
:1053200023F040527B681B6C02491343C1F888305C
:105330007B6801E0001002401B6CB3F1805F05D177
:10534000214BDB68204A43F48033D3607B681B68C1
:1053500003F48033002B15D01B4BD3F8883023F097
:1053600040427B685B6C18491343C1F888307B6806
:105370005B6CB3F1804F05D1134BDB68124A43F4E9
:105380008033D3607B681B6803F48023002B15D027
:105390000D4BD3F89C3023F440127B689B6C0A4978
:1053A0001343C1F89C307B689B6CB3F5001F05D19B
:1053B000054BDB68044A43F48013D360BB7C18467A
:1053C0001837BD4680BD00BF0010024080B584B0D4
:1053D00000AF78607B68002B01D101239DE07B68E2
:1053E0005B6A002B08D17B685B68B3F5827F09D0CC
:1053F0007B680022DA6105E07B6800221A617B6825
:1054000000225A617B6800229A627B6893F85D30C3
:10541000DBB2002B06D17B68002283F85C20786821
:10542000FCF754FD7B68022283F85D207B681B68D3
:105430001A687B681B6822F040021A607B68DB6890
:10544000B3F5E06F02D90023FB6002E04FF4805314
:10545000FB607B68DB68B3F5706F07D07B68DB6847
:10546000B3F5E06F02D07B6800229A627B685B68CC
:1054700003F482727B689B6803F404431A437B68DD
:105480001B6903F002031A437B685B6903F00103A5
:105490001A437B689B6903F400731A437B68DB69DA
:1054A00003F038031A437B681B6A03F0800342EA67
:1054B00003017B689B6A03F400527B681B680A4304
:1054C0001A607B689B691B0C03F004027B685B6AB3
:1054D00003F010031A437B685B6B03F008031A4365
:1054E0007B68DB6803F4706342EA0301FB6803F442
:1054F00080527B681B680A435A607B681B68DA69C4
:105500007B681B6822F40062DA617B6800221A66FD
:105510007B68012283F85D20002318461037BD46C2
:1055200080BD80B582B000AF78607B68002B01D170
:10553000012349E07B6893F83D30DBB2002B06D1B4
:105540007B68002283F83C207868FCF703FD7B68C9
:10555000022283F83D207B681A687B680433194671
:10556000104600F069FE7B68012283F848207B68C2
:10557000012283F83E207B68012283F83F207B686C
:10558000012283F840207B68012283F841207B6858
:10559000012283F842207B68012283F843207B6844
:1055A000012283F844207B68012283F845207B6830
:1055B000012283F846207B68012283F847207B681C
:1055C000012283F83D20002318460837BD4680BDE0
:1055D00080B582B000AF78607B68002B01D10123D9
:1055E00049E07B6893F83D30DBB2002B06D17B6845
:1055F000002283F83C20786800F041F87B680222A2
:1056000083F83D207B681A687B680433194610468E
:1056100000F012FE7B68012283F848207B6801229B
:1056200083F83E207B68012283F83F207B680122BB
:1056300083F840207B68012283F841207B680122A7
:1056400083F842207B68012283F843207B68012293
:1056500083F844207B68012283F845207B6801227F
:1056600083F846207B68012283F847207B6801226B
:1056700083F83D20002318460837BD4680BD80B41E
:1056800083B000AF786000BF0C37BD465DF8047B87
:105690007047000080B584B000AF786039603B6827
:1056A000002B09D17B6893F83E30DBB2012B14BF8D
:1056B00001230023DBB23CE03B68042B09D17B686B
:1056C00093F83F30DBB2012B14BF01230023DBB280
:1056D0002FE03B68082B09D17B6893F84030DBB2A0
:1056E000012B14BF01230023DBB222E03B680C2B0B
:1056F00009D17B6893F84130DBB2012B14BF012341
:105700000023DBB215E03B68102B09D17B6893F8CE
:105710004230DBB2012B14BF01230023DBB208E0CF
:105720007B6893F84330DBB2012B14BF01230023C5
:10573000DBB2002B01D00123A1E03B68002B04D198
:105740007B68022283F83E2023E03B68042B04D1CF
:105750007B68022283F83F201BE03B68082B04D1C2
:105760007B68022283F8402013E03B680C2B04D1B5
:105770007B68022283F841200BE03B68102B04D1A8
:105780007B68022283F8422003E07B68022283F8D0
:1057900043207B681B6801223968184601F0D4FA5F
:1057A0007B681B68384A934218D07B681B68374A6D
:1057B000934213D07B681B68354A93420ED07B68B6
:1057C0001B68344A934209D07B681B68324A934273
:1057D00004D07B681B68314A934201D1012300E069
:1057E0000023002B07D07B681B685A6C7B681B6802
:1057F00042F400425A647B681B68234A93421DD0DE
:105800007B681B68B3F1804F18D07B681B68244A03
:10581000934213D07B681B68224A93420ED07B6868
:105820001B681A4A934209D07B681B68184A934246
:1058300004D07B681B68194A934215D17B681B68AA
:105840009A68194B1340FB60FB68062B15D0FB6868
:10585000B3F5803F11D07B681B681A687B681B68B2
:1058600042F001021A6008E07B681B681A687B68D6
:105870001B6842F001021A6000E000BF00231846D6
:105880001037BD4680BD00BF002C014000340140F0
:1058900000400140004401400048014000500140E8
:1058A00000040040000800400700010080B582B0FD
:1058B00000AF78607B68002B01D1012349E07B6851
:1058C00093F83D30DBB2002B06D17B68002283F8D1
:1058D0003C20786800F041F87B68022283F83D2084
:1058E0007B681A687B6804331946104600F0A4FCF4
:1058F0007B68012283F848207B68012283F83E20E0
:105900007B68012283F83F207B68012283F84020D6
:105910007B68012283F841207B68012283F84220C2
:105920007B68012283F843207B68012283F84420AE
:105930007B68012283F845207B68012283F846209A
:105940007B68012283F847207B68012283F83D2091
:10595000002318460837BD4680BD80B483B000AF31
:10596000786000BF0C37BD465DF8047B704780B59A
:1059700082B000AF78607B681B681B6903F002038C
:10598000022B22D17B681B68DB6803F00203022B29
:105990001BD17B681B686FF002021A617B680122D1
:1059A0001A777B681B689B6903F00303002B03D005
:1059B000786800F023FC05E0786800F015FC786852
:1059C00000F026FC7B6800221A777B681B681B6945
:1059D00003F00403042B22D17B681B68DB6803F00F
:1059E0000403042B1BD17B681B686FF004021A614F
:1059F0007B6802221A777B681B689B6903F44073FB
:105A0000002B03D0786800F0F9FB05E0786800F01F
:105A1000EBFB786800F0FCFB7B6800221A777B6860
:105A20001B681B6903F00803082B22D17B681B68E5
:105A3000DB6803F00803082B1BD17B681B686FF041
:105A400008021A617B6804221A777B681B68DB698D
:105A500003F00303002B03D0786800F0CFFB05E0D0
:105A6000786800F0C1FB786800F0D2FB7B68002208
:105A70001A777B681B681B6903F01003102B22D177
:105A80007B681B68DB6803F01003102B1BD17B685D
:105A90001B686FF010021A617B6808221A777B6816
:105AA0001B68DB6903F44073002B03D0786800F0B7
:105AB000A5FB05E0786800F097FB786800F0A8FB8C
:105AC0007B6800221A777B681B681B6903F001035F
:105AD000012B0ED17B681B68DB6803F00103012BEF
