:020000040800F2
:1000000000C00120E9270008D1250008D7250008F5
:10001000DD250008E3250008E925000800000000B0
:10002000000000000000000000000000EF250008B4
:10003000FD250008000000000B2600081926000816
:10004000392800083928000839280008392800080C
:1000500039280008392800083928000839280008FC
:1000600039280008392800083928000839280008EC
:1000700039280008392800083928000839280008DC
:1000800039280008392800083928000839280008CC
:1000900039280008392800083928000839280008BC
:1000A00039280008392800083928000839280008AC
:1000B00025260008392800083928000839280008B2
:1000C000392800083928000839280008392800088C
:1000D000392800083928000839280008392800087C
:1000E000392800083928000839280008392800086C
:1000F000392800083928000839280008392800085C
:10010000000000003928000800000000392800081D
:10011000392800083928000839280008392800083B
:10012000392800083928000839280008392800082B
:1001300039280008000000000000000039280008ED
:1001400039280008392800080000000000000000DD
:10015000000000000000000000000000000000009F
:100160000000000000000000000000003928000826
:1001700039280008392800083928000839280008DB
:10018000392800083928000800000000000000009D
:10019000000000000000000039280008392800088D
:1001A000000000000000000039280008392800087D
:1001B000392800083928000839280008392800089B
:1001C000392800083928000839280008392800088B
:0801D000392800083928000855
:1001E00010B5054C237833B9044B13B10448AFF371
:1001F00000800123237010BD0802002000000000D1
:1002000044BC000808B5034B1BB103490348AFF3D6
:10021000008008BD000000000C02002044BC000863
:1002200001F0FF01102A2BDB10F0070F08D010F8A7
:10023000013B013A8B422DD010F0070F42B3F6D1AB
:10024000F0B441EA012141EA014122F007047FF0C4
:1002500000070023F0E80256083C85EA010586EA1B
:10026000010685FA47F5A3FA87F586FA47F6A5FA57
:1002700087F68EB9EED1F0BC01F0FF0102F0070263
:1002800032B110F8013B013A83EA010313B1F8D10E
:100290000020704701387047002D06BF35460338EF
:1002A000073815F0010F07D1013015F4807F02BF28
:1002B000013015F4C03F0130F0BC0138704700BF79
:1002C000034613F8012B002AFBD1181A0138704796
:1002D00081F0004102E000BF83F0004330B54FEAF7
:1002E00041044FEA430594EA050F08BF90EA020F64
:1002F0001FBF54EA000C55EA020C7FEA645C7FEAF7
:10030000655C00F0E2804FEA5454D4EB5555B8BF19
:100310006D420CDD2C4480EA020281EA030382EA8A
:10032000000083EA010180EA020281EA0303362D1C
:1003300088BF30BD11F0004F4FEA01314FF4801CEF
:100340004CEA113102D0404261EB410113F0004F01
:100350004FEA03334CEA133302D0524263EB4303B8
:1003600094EA050F00F0A780A4F10104D5F1200E56
:100370000DDB02FA0EFC22FA05F2801841F10001B1
:1003800003FA0EF2801843FA05F359410EE0A5F185
:1003900020050EF1200E012A03FA0EFC28BF4CF0B6
:1003A000020C43FA05F3C01851EBE37101F000456C
:1003B00007D54FF0000EDCF1000C7EEB00006EEB79
:1003C0000101B1F5801F1BD3B1F5001F0CD3490803
:1003D0005FEA30004FEA3C0C04F101044FEA44525A
:1003E00012F5800F80F09A80BCF1004F08BF5FEAE1
:1003F000500C50F1000041EB045141EA050130BDC1
:100400005FEA4C0C404141EB0101013C28BFB1F5D2
:10041000801FE9D291F0000F04BF01460020B1FA1D
:1004200081F308BF2033A3F10B03B3F120020CDAF0
:100430000C3208DD02F1140CC2F10C0201FA0CF0CE
:1004400021FA02F10CE002F11402D8BFC2F1200C33
:1004500001FA02F120FA0CFCDCBF41EA0C019040E9
:10046000E41AA2BF01EB0451294330BD6FEA040432
:100470001F3C1CDA0C340EDC04F11404C4F120021D
:1004800020FA04F001FA02F340EA030021FA04F32F
:1004900045EA030130BDC4F10C04C4F1200220FA86
:1004A00002F001FA04F340EA0300294630BD21FAC4
:1004B00004F0294630BD94F0000F83F4801306BF8A
:1004C00081F480110134013D4EE77FEA645C18BF7E
:1004D0007FEA655C29D094EA050F08BF90EA020F15
:1004E00005D054EA000C04BF1946104630BD91EA0D
:1004F000030F1EBF0021002030BD5FEA545C05D110
:100500004000494128BF41F0004130BD14F580044E
:100510003CBF01F5801130BD01F0004545F0FE41C2
:1005200041F470014FF0000030BD7FEA645C1ABFF7
:10053000194610467FEA655C1CBF0B46024650EA2E
:10054000013406BF52EA033591EA030F41F400215A
:1005500030BD00BF90F0000F04BF0021704730B5E0
:100560004FF4806404F132044FF000054FF00001B5
:1005700050E700BF90F0000F04BF0021704730B576
:100580004FF4806404F1320410F0004548BF40424B
:100590004FF000013EE700BF42004FEAE2014FEAA0
:1005A00031014FEA02701FBF12F07F4393F07F4F7B
:1005B00081F06051704732F07F4208BF704793F07E
:1005C0007F4F04BF41F40021704730B54FF4607491
:1005D00001F0004521F000411CE700BF50EA010294
:1005E00008BF704730B54FF000050AE050EA01023D
:1005F00008BF704730B511F0004502D5404261EBAD
:1006000041014FF4806404F132045FEA915C3FF4ED
:10061000D8AE4FF003025FEADC0C18BF03325FEA8A
:10062000DC0C18BF033202EBDC02C2F1200300FA3B
:1006300003FC20FA02F001FA03FE40EA0E0021FA60
:1006400002F11444BDE600BF70B54FF0FF0C4CF44E
:10065000E06C1CEA11541DBF1CEA135594EA0C0F00
:1006600095EA0C0F00F0DEF82C4481EA030621EA3B
:100670004C5123EA4C5350EA013518BF52EA033576
:1006800041F4801143F4801338D0A0FB02CE4FF028
:100690000005E1FB02E506F00042E0FB03E54FF058
:1006A0000006E1FB03569CF0000F18BF4EF0010E50
:1006B000A4F1FF04B6F5007F64F5407404D25FEA4C
:1006C0004E0E6D4146EB060642EAC62141EA5551FF
:1006D0004FEAC52040EA5E504FEACE2EB4F1FD0C41
:1006E00088BFBCF5E06F1ED8BEF1004F08BF5FEABF
:1006F000500E50F1000041EB045170BD06F0004671
:1007000046EA010140EA020081EA0301B4EB5C041D
:10071000C2BFD4EB0C0541EA045170BD41F4801115
:100720004FF0000E013C00F3AB8014F1360FDEBF3A
:10073000002001F0004170BDC4F10004203C35DA16
:100740000C341BDC04F11404C4F1200500FA05F399
:1007500020FA04F001FA05F240EA020001F000423A
:1007600021F0004110EBD37021FA04F642EB0601B0
:100770005EEA430E08BF20EAD37070BDC4F10C04DA
:10078000C4F1200500FA04F320FA05F001FA04F29E
:1007900040EA020001F0004110EBD37041F100018A
:1007A0005EEA430E08BF20EAD37070BDC4F1200595
:1007B00000FA05F24EEA020E20FA04F301FA05F2FD
:1007C00043EA020321FA04F001F0004121FA04F2A5
:1007D00020EA020000EBD3705EEA430E08BF20EA75
:1007E000D37070BD94F0000F0FD101F000464000AF
:1007F00041EB010111F4801F08BF013CF7D041EA31
:10080000060195F0000F18BF704703F00046520034
:1008100043EB030313F4801F08BF013DF7D043EA05
:100820000603704794EA0C0F0CEA135518BF95EABB
:100830000C0F0CD050EA410618BF52EA4306D1D142
:1008400081EA030101F000414FF0000070BD50EA61
:10085000410606BF1046194652EA430619D094EAEB
:100860000C0F02D150EA013613D195EA0C0F05D1D5
:1008700052EA03361CBF104619460AD181EA030129
:1008800001F0004141F0FE4141F470014FF00000E1
:1008900070BD41F0FE4141F4780170BD70B54FF07C
:1008A000FF0C4CF4E06C1CEA11541DBF1CEA1355FC
:1008B00094EA0C0F95EA0C0F00F0A7F8A4EB0504DE
:1008C00081EA030E52EA03354FEA013100F08880D5
:1008D0004FEA03334FF0805545EA131343EA12639E
:1008E0004FEA022245EA111545EA10654FEA002653
:1008F0000EF000419D4208BF964244F1FD0404F50C
:10090000407402D25B084FEA3202B61A65EB030567
:100910005B084FEA32024FF480104FF4002CB6EB24
:10092000020E75EB030E22BFB61A754640EA0C00A4
:100930005B084FEA3202B6EB020E75EB030E22BFE4
:10094000B61A754640EA5C005B084FEA3202B6EB25
:10095000020E75EB030E22BFB61A754640EA9C00E4
:100960005B084FEA3202B6EB020E75EB030E22BFB4
:10097000B61A754640EADC0055EA060E18D04FEA72
:10098000051545EA16754FEA06164FEAC30343EA12
:1009900052734FEAC2025FEA1C1CC0D111F4801FDF
:1009A0000BD141EA00014FF000004FF0004CB6E7D8
:1009B00011F4801F04BF01430020B4F1FD0C88BF77
:1009C000BCF5E06F3FF6AFAEB5EB030C04BFB6EB82
:1009D000020C5FEA500C50F1000041EB045170BD75
:1009E0000EF0004E4EEA113114EB5C04C2BFD4EBA2
:1009F0000C0541EA045170BD41F480114FF0000E26
:100A0000013C90E645EA060E8DE60CEA135594EAA1
:100A10000C0F08BF95EA0C0F3FF43BAF94EA0C0FA4
:100A20000AD150EA01347FF434AF95EA0C0F7FF419
:100A300025AF104619462CE795EA0C0F06D152EA6D
:100A400003353FF4FDAE1046194622E750EA410651
:100A500018BF52EA43067FF4C5AE50EA41047FF462
:100A60000DAF52EA43057FF4EBAE12E74FF0FF3CC7
:100A700006E000BF4FF0010C02E000BF4FF0010C98
:100A80004DF804CD4FEA410C7FEA6C5C4FEA430C11
:100A900018BF7FEA6C5C1BD001B050EA410C0CBF60
:100AA00052EA430C91EA030F02BF90EA020F0020C2
:100AB000704710F1000F91EA030F58BF994208BF29
:100AC00090422CBFD8176FEAE37040F001007047E6
:100AD0004FEA410C7FEA6C5C02D150EA013C07D13D
:100AE0004FEA430C7FEA6C5CD6D152EA033CD3D088
:100AF0005DF8040B704700BF8446104662468C4682
:100B00001946634600E000BF01B5FFF7B7FF0028B4
:100B100048BF10F1000F01BD4DF808EDFFF7F4FFDD
:100B20000CBF012000205DF808FB00BF4DF808ED68
:100B3000FFF7EAFF34BF012000205DF808FB00BF8B
:100B40004DF808EDFFF7E0FF94BF012000205DF8AD
:100B500008FB00BF4DF808EDFFF7CEFF94BF012062
:100B600000205DF808FB00BF4DF808EDFFF7C4FF5B
:100B700034BF012000205DF808FB00BF4FEA410CA4
:100B80007FEA6C5C02D150EA013C0AD14FEA430C87
:100B90007FEA6C5C02D152EA033C02D14FF00000C4
:100BA00070474FF0010070474FEA410212F5001202
:100BB00015D211D56FF47873B3EB625212D94FEAA4
:100BC000C12343F0004343EA505311F0004F23FA8E
:100BD00002F018BF404270474FF00000704750EAE3
:100BE000013005D111F0004008BF6FF000407047A0
:100BF0004FF00000704700BF53B94AB9002908BF41
:100C000000281CBF4FF0FF314FF0FF3000F070B9EB
:100C1000ADF1080C6DE904CE00F006F8DDF804E053
:100C2000DDE9022304B070472DE9F047089E0D4628
:100C300004460F46002B4AD18A42944665D9B2FA3F
:100C400082F343B102FA03FCC3F120029F4020FA71
:100C500002F217439C404FEA1C4E1FFA8CF5B7FB7B
:100C6000FEF1220C0EFB117742EA074201FB05F070
:100C700090420AD91CEB020201F1FF3780F01C817F
:100C8000904240F2198102396244121AA4B2B2FBB6
:100C9000FEF00EFB102244EA024400FB05F5A542DB
:100CA0000AD91CEB040400F1FF3280F00781A54251
:100CB00040F204816444023840EA0140641B002190
:100CC0001EB1DC400023C6E90043BDE8F0878B423B
:100CD00008D9002E00F0ED800021C6E90005084685
:100CE000BDE8F087B3FA83F1002949D1AB4202D3C2
:100CF000824200F2F880841A65EB03020120174655
:100D0000002EE2D0C6E90047DFE702B9FFDEB2FA03
:100D100082F3002B40F090808A1A4FEA1C471FFA9A
:100D20008CFE0121B2FBF7F507FB1520220C42EAED
:100D300000420EFB05F0904208D91CEB020205F1BF
:100D4000FF3802D2904200F2CB804546121AA4B27C
:100D5000B2FBF7F007FB102244EA02440EFB00FE50
:100D6000A64508D91CEB040400F1FF3202D2A645C7
:100D700000F2BB801046A4EB0E0440EA05409FE75A
:100D8000C1F120078B4022FA07FC4CEA030C05FA5C
:100D900001F420FA07F3FD404FEA1C492343B5FB59
:100DA000F9F81FFA8CFE09FB18551C0C44EA05449F
:100DB00008FB0EF5A54202FA01F200FA01F00BD988
:100DC0001CEB040408F1FF3A80F08880A54240F251
:100DD0008580A8F102086444641B9DB2B4FBF9F35A
:100DE00009FB134445EA044403FB0EFEA64508D95B
:100DF0001CEB040403F1FF356CD2A6456AD9023B13
:100E0000644443EA0843A3FB0295A4EB0E04AC42FE
:100E1000C846AE4656D353D056B1B0EB080264EB89
:100E20000E0404FA07F7CA40CC401743C6E9007421
:100E300018460021BDE8F087C3F1200102FA03FC47
:100E400020FA01F225FA01F19D402A434FEA1C479E
:100E50001FFA8CFEB1FBF7F007FB1015110C41EAED
:100E6000054100FB0EF58D4204FA03F408D91CEB92
:100E7000010100F1FF382FD28D422DD90238614493
:100E8000491B92B2B1FBF7F507FB151142EA01428B
:100E900005FB0EF1914208D91CEB020205F1FF3867
:100EA00016D2914214D9023D6244521A45EA0041D9
:100EB00038E73146304608E73946E6E61046FBE6B5
:100EC0004845A9D2B9EB020865EB0C0E013BA3E73C
:100ED0004546EAE72B4694E74046D1E7D0467BE714
:100EE000023D624432E708460AE76444023842E7BA
:100EF000704700BF80B483B000AF03460A46FB8052
:100F00001346BB80FA88BB8813443F2B01DCFB8867
:100F100003E0BB88C3F140039BB218460C37BD46C3
:100F20005DF8047B7047000080B58EB004AFBA60F6
:100F30001A460346FB810B46BB811346FB80062302
:100F4000FB61FB89FB84FA88BB891344002B00DA20
:100F50003F339B119AB2FB8913447B837A8BFB8CC2
:100F6000D31A9BB201333B830023BB8400233B6233
:100F700039E0FA8CFB6902FA03F31AB2B7F90C30C4
:100F800013431BB2FB82BA89FB8811461846FFF750
:100F9000B1FF0346BB82BB8CBA681344F98A4FF495
:100FA0007A720292BA8A0192009302230A46A02121
:100FB000114803F0B9FD0346002B01D000F0FCFFFF
:100FC000FB8C0133FB840023BB81FA88BB8AD31AD4
:100FD000FB80BA8CBB8A1344BB84052001F09EFCC5
:100FE0003B6A01333B623B8B3A6A9A42C1DB00BFEA
:100FF00000BF2837BD4680BD6403002080B58EB099
:1010000004AFBA601A460346FB810B46BB81134608
:10101000FB800623FB61FB89FB84FA88BB891344B0
:10102000002B00DA3F339B119AB2FB8913447B8378
:101030007A8BFB8CD31A9BB201333B830023BB8496
:1010400000233B6231E0FA8CFB6902FA03F31AB227
:10105000B7F90C3013431BB2FB82BA89FB881146E7
:101060001846FFF747FF0346BB82BB8CBA681344A0
:10107000F98A4FF47A720292BA8A0192009302239B
:101080000A46A021164803F063FEFB8C0133FB8463
:101090000023BB81FA88BB8AD31AFB80BA8CBB8A37
:1010A0001344BB843B6A01333B623B8B3A6A9A42EE
:1010B000C9DBB868FFF704F903469AB24FF0FF3373
:1010C000B968084807F0C4F84FF0FF330322064917
:1010D000044807F0BDF800BF2837BD4680BD00BFFB
:1010E00064030020FC0300200000002080B598B0BD
:1010F00004AF0346FB800623FB64FA88FB6C02FA0C
:1011000003F3A7F84A3007F108034022FF211846ED
:1011100008F09FFCB7F84A204FF47A7302934023FB
:10112000019307F1080300930223A021044803F070
:10113000FBFC052001F0F2FB00BF5037BD4680BD2F
:1011400064030020F0B589B006AF4021624803F087
:1011500093F90346002B00F0BA804FF0FF330922C9
:101160005E495F4807F074F85E4B5F4A40215A4879
:1011700003F0A8F84FF4FA7001F0D0FB594B1B783C
:101180001E46584B5B789C46564B9B781A46554BEF
:10119000DB781946534B1B791846524B5B791C463A
:1011A000504B9B791D464F4BDB7905930495039477
:1011B000029001910092634632464C494C4808F037
:1011C000E5FB4C4B00221A7000237B6019E0454A76
:1011D0007B6813441B78002B05D1464B1B780133E9
:1011E000DAB2444B1A703F4A7B6813441B780133D0
:1011F000D9B2414A7B6813440A461A707B680133AE
:101200007B607B68072BE2DD3948FFF759F803461E
:101210009AB24FF0FF333649314807F019F84FF0D2
:10122000FF33092235492E4807F012F8324A344973
:10123000294803F003F80346002B01D000F0BCFE60
:101240004FF4FA7001F06AFB2B4B1B781E462A4BB9
:101250005B789C46284B9B781A46274BDB781946CF
:10126000254B1B791846244B5B791C46224B9B79F6
:101270001D46214BDB79059304950394029001915F
:101280000092634632461949194808F07FFB184816
:10129000FFF716F803469AB24FF0FF33144910488F
:1012A00006F0D6FF4FF0FF33262216490C4806F011
:1012B000CFFF104B1B78082B03D1134B01221A7060
:1012C00002E0114B00221A700A4B00221A7000BF74
:1012D0000C37BD46F0BD00BF0003002060BC000815
:1012E000FC030020A8050020B80500206CBC000805
:1012F0008805002024020020B005002098BC0008CA
:10130000E0050020040000200406002080B584B021
:1013100000AF786039600023FB600BE0FB687A68FF
:10132000134419780E4AFB6813440A461A70FB6886
:101330000133FB60FA683B689A42EFDB084A0949CF
:10134000094802F07BFF0346002B01D000F034FE79
:101350004FF4FA7001F0E2FA00BF1037BD4680BDCD
:10136000B0050020E00500200003002080B582B019
:1013700000AF01F062FA00F013F900F059FD00F03F
:1013800067FA00F0FBFA00F095FB00F033FC00F088
:10139000BBFC00F059F900F0E5F900F03DFB00F06E
:1013A000E7FB764B00221A7002214FF0904003F0C9
:1013B00011FB724B1B78012B53D100237B6016E08D
:1013C00007F090FD02466E4B83FB0213D910D31732
:1013D000C91A0B469B000B449B00D11AC9B2694A3B
:1013E0007B6813440A461A707B6801337B607B6814
:1013F000072BE5DD6348FEF763FF03469AB24FF023
:10140000FF336049604806F023FF4FF0FF330322AB
:101410005E495D4806F01CFF08215A48FFF776FF39
:101420000823584A00210020FFF77EFD0823584A70
:1014300000210020FFF7E2FD08215548FFF766FF75
:101440004E4B00221A700023FB7007E0FB789BB222
:101450001846FFF74BFEFB780133FB70FB78FA2B45
:10146000F4D9FFF76FFE80214A4803F083FA034660
:10147000002B14BF01230023DBB2002B0ED001226E
:1014800010214FF0904003F08DFA002220214148B6
:1014900003F088FA404B01221A601EE04FF400610D
:1014A0003C4803F067FA0346002B14BF01230023D6
:1014B000DBB2002B0ED0012210214FF0904003F040
:1014C00071FA00222021334803F06CFA324B0122DA
:1014D0001A6002E0304B00221A602F4B1B68002B71
:1014E0002CD104212B4803F045FA0346002B0CBFF6
:1014F00001230023DBB2002B20D010214FF09040BD
:1015000003F068FA10214FF0904003F033FA0346DD
:10151000002B0CBF01230023DBB2002B05D00122DE
:1015200020211C4803F03EFA04E000222021194843
:1015300003F038FA4FF4FA7001F0F0F94FF48061DB
:10154000164803F017FA0346002B0CBF01230023B3
:10155000DBB2002B0DD080214FF0904003F03AFA1F
:101560004FF400610D4803F035FA4FF4FA7001F0C2
:10157000D5F9642001F0D2F916E700BF0406002077
:101580006766666608060020FC0300203000002025
:1015900010060020000800482C000020000400482D
:1015A00080B594B000AF07F1180338220021184627
:1015B00008F04FFA3B1D00221A605A609A60DA6008
:1015C0001A614FF4007004F01BF80123BB614FF463
:1015D0008033FB6102237B630323BB630123FB6333
:1015E00008233B6402237B640223BB640223FB6465
:1015F00007F11803184604F0B7F80346002B14BF90
:1016000001230023DBB2002B01D000F0D5FC0F2317
:101610007B600323BB600023FB6000233B6100234E
:101620007B613B1D0221184604F0B6FB0346002BEC
:1016300014BF01230023DBB2002B01D000F0BCFC5F
:1016400000BF5037BD4680BD80B58CB000AF07F1FC
:10165000240300221A605A609A603B1D2022002158
:10166000184608F0F6F93D4B4FF0A0421A603B4B8C
:101670004FF400325A60394B00229A60374B0022F7
:10168000DA60364B00221A61344B00225A61334B28
:1016900004229A61314B00221A77304B00225A778C
:1016A0002E4B01221A622D4B002283F824202B4B53
:1016B0000022DA62294B00221A63284B002283F8A9
:1016C0003820264B0022DA63244B002283F8402086
:1016D000224801F045FB0346002B14BF01230023E1
:1016E000DBB2002B01D000F067FC00237B6207F126
:1016F00024031946194802F027FA0346002B14BFA9
:1017000001230023DBB2002B01D000F055FC144B69
:101710007B600623BB600223FB607F233B610423C5
:101720007B610023BB613B1D19460C4801F0CCFCDA
:101730000346002B14BF01230023DBB2002B01D092
:1017400000F03AFC7F21054802F09CF90A2001F0E4
:10175000E5F800BF3037BD4680BD00BF280200203D
:101760004000201980B588B000AF3B462022002100
:10177000184608F06EF9334B334A1A60314B4FF478
:1017800000325A602F4B00229A602E4B0022DA6002
:101790002C4B00221A612B4B00225A61294B042248
:1017A0009A61284B00221A77264B00225A77254B44
:1017B00001221A62234B002283F82420214B0022AD
:1017C000DA62204B00221A631E4B002283F8382075
:1017D0001C4B0022DA631B4B002283F8402019487F
:1017E00001F0BEFA0346002B14BF01230023DBB235
:1017F000002B01D000F0E0FB144B3B6006237B6024
:101800000023BB607F23FB6004233B6100237B61DB
:101810003B4619460B4801F057FC0346002B14BF0A
:1018200001230023DBB2002B01D000F0C5FB7F2198
:10183000044802F027F90A2001F070F800BF2037B1
:10184000BD4680BD94020020000100508000501D64
:1018500080B586B000AF454B23221A60434B4FF052
:1018600080425A60414B00229A60404B4FF4002264
:10187000DA603E4B00221A613C4B00225A613B4B1E
:101880004FF400129A61394B0022DA61374B002283
:101890001A62374B23221A60354B4FF080425A6050
:1018A000334B00229A60324B4FF40022DA60304B07
:1018B00000221A612E4B00225A612D4B4FF4001268
:1018C0009A612C4B2C4A1A602A4B00225A60294BF1
:1018D00000229A60274B0022DA60264B00221A74FD
:1018E000244B00225A74234B00229A74214B01226C
:1018F0005A61204B01229A611E4B6E22DA611D4B08
:1019000011221A621B4B01225A621A4B01229A625F
:10191000184B2022DA62174B01221A63154B002262
:101920005A63144B00229A63124B0022DA63114867
:1019300002F002FB0346002B14BF01230023DBB29D
:10194000002B01D000F038FB0A4802F04FFC0346A0
:10195000002B14BF01230023DBB2002B01D000F0C9
:101960002BFB00BF1837BD4680BD00BFE00500203F
:10197000B8050020000300200064004080B500AFDF
:10198000224B234A1A60214B224A5A601F4B0022E5
:101990009A601E4B0122DA601C4B00221A611B4B1D
:1019A00000225A61194B00229A61184B0022DA6119
:1019B000164B00221A62154803F026F80346002B46
:1019C00014BF01230023DBB2002B01D000F0F4FA96
:1019D00000210E4803F07CFD0346002B14BF0123B9
:1019E0000023DBB2002B01D000F0E6FA002107480B
:1019F00003F0B9FD0346002B14BF01230023DBB223
:101A0000002B01D000F0D8FA00BF80BD6403002095
:101A1000005800407321600080B500AF224B234A7C
:101A20001A60214B224A5A601F4B00229A601E4BBB
:101A30000122DA601C4B00221A611B4B00225A6102
:101A4000194B00229A61184B0022DA61164B0022D2
:101A50001A62154802F0D8FF0346002B14BF012379
:101A60000023DBB2002B01D000F0A6FA00210E48C3
:101A700003F02EFD0346002B14BF01230023DBB22D
:101A8000002B01D000F098FA0021074803F06BFD0D
:101A90000346002B14BF01230023DBB2002B01D02F
:101AA00000F08AFA00BF80BDB0030020007800403B
:101AB0007321600080B500AF2B4B2C4A1A602A4B73
:101AC0004FF4E1325A60284B00229A60264B0022E4
:101AD000DA60254B00221A61234B0C225A61224BFB
:101AE00000229A61204B00221A621F4B00225A6288
:101AF0001D4B00229A621C4806F05AFB0346002B3D
:101B000014BF01230023DBB2002B01D000F054FAF4
:101B10000021154807F01CF90346002B14BF0123D0
:101B20000023DBB2002B01D000F046FA00210E4862
:101B300007F04CF90346002B14BF01230023DBB24E
:101B4000002B01D000F038FA074807F0C8F8034628
:101B5000002B14BF01230023DBB2002B01D000F0C7
:101B60002BFA00BF80BD00BFFC03002000800040B6
:101B700080B500AF1D4B1E4A1A601C4B4FF4827299
:101B80005A601A4B00229A60184B4FF4E062DA60F8
:101B9000164B00221A61154B00225A61134B4FF469
:101BA00080229A61114B0022DA61104B00221A62E6
:101BB0000E4B00225A620D4B00229A620B4B0722F9
:101BC000DA620A4B00221A63084B08225A6307485C
:101BD00004F036FD0346002B14BF01230023DBB2C3
:101BE000002B01D000F0E8F900BF80BD8C0400207C
:101BF0000038004080B58CB000AF07F12003002210
:101C00001A605A609A60DA6007F1140300221A60C1
:101C10005A609A603B1D00221A605A609A60DA602E
:101C2000384B4FF080421A60364B3F225A60354B9A
:101C300000229A60334B4FF0FF32DA60314B0022C2
:101C40001A61304B00229A612E4804F0A4FD03462D
:101C5000002B14BF01230023DBB2002B01D000F0C6
:101C6000ABF94FF480533B6207F120031946254836
:101C700005F0E6FA0346002B14BF01230023DBB274
:101C8000002B01D000F098F91E4804F049FF0346EC
:101C9000002B14BF01230023DBB2002B01D000F086
:101CA0008BF900237B610023FB6107F114031946C4
:101CB000144806F0A9F90346002B14BF01230023A2
:101CC000DBB2002B01D000F077F90A237B600123FF
:101CD000BB600023FB6000233B613B1D00221946D3
:101CE000084805F0FDF80346002B14BF012300232C
:101CF000DBB2002B01D000F05FF900BF3037BD46EA
:101D000080BD00BFF004002080B58EB000AF07F1A9
:101D1000280300221A605A609A60DA6007F11C03F7
:101D200000221A605A609A603B4600221A605A608C
:101D30009A60DA601A615A619A613B4B3B4A1A60B9
:101D4000394B3F225A60384B00229A60364B27228B
:101D5000DA60354B00221A61334B00229A61324817
:101D600004F019FD0346002B14BF01230023DBB24E
:101D7000002B01D000F020F94FF48053BB6207F133
:101D800028031946284805F05BFA0346002B14BFC8
:101D900001230023DBB2002B01D000F00DF9224813
:101DA00004F050FD0346002B14BF01230023DBB2D7
:101DB000002B01D000F000F90023FB6100237B62BF
:101DC00007F11C031946184806F01EF90346002BBC
:101DD00014BF01230023DBB2002B01D000F0ECF88C
:101DE00060233B601E237B600023BB6000233B61BC
:101DF0003B46002219460C4805F00EF90346002B1D
:101E000014BF01230023DBB2002B01D000F0D4F873
:101E10000021054804F078FD034800F0A3FB00BF53
:101E20003837BD4680BD00BF3C050020000400409F
:101E300080B58AB000AF07F1140300221A605A601F
:101E40009A60DA601A61594BDB6C584A43F0200300
:101E5000D364564BDB6C03F020033B613B69534B6F
:101E6000DB6C524A43F00403D364504BDB6C03F049
:101E70000403FB60FB684D4BDB6C4C4A43F00103F1
:101E8000D3644A4BDB6C03F00103BB60BB68474B78
:101E9000DB6C464A43F00203D364444BDB6C03F033
:101EA00002037B607B68002240F282614FF0904029
:101EB00002F078FD00224FF48C613D4802F072FD83
:101EC000002240F607013B4802F06CFD0122102180
:101ED0004FF0904002F066FD40F684037B610023E2
:101EE000BB610023FB6107F114031946304802F07F
:101EF000BFFB02237B611123BB610023FB61002335
:101F00003B6207F1140319464FF0904002F0B0FB1A
:101F10004FF4D2637B610123BB610023FB6100238B
:101F20003B6207F1140319464FF0904002F0A0FB0A
:101F300060237B610123BB610023FB6100233B62C3
:101F400007F1140319461A4802F092FB40F6070302
:101F50007B610123BB610023FB6100233B6207F12E
:101F600014031946134802F083FB4FF480637B612E
:101F70000023BB610023FB6107F1140319460D48E0
:101F800002F076FB4FF480637B611123BB61002379
:101F9000FB6100233B6207F114031946044802F079
:101FA00067FB00BF2837BD4680BD00BF0010024060
:101FB000000800480004004880B400AF72B600BFBB
:101FC000FEE7000080B582B000AF0F4B1B6E0E4ADB
:101FD00043F0010313660C4B1B6E03F001037B609F
:101FE0007B68094B9B6D084A43F080539365064B11
:101FF0009B6D03F080533B603B6803F0A5FB00BF83
:102000000837BD4680BD00BF0010024080B5A0B0BB
:1020100000AF786007F16C0300221A605A609A6082
:10202000DA601A6107F11C0350220021184607F0FC
:1020300010FD7B681B68B3F1A04F3DD14FF4004306
:10204000FB614FF00053FB6507F11C03184604F0D9
:10205000BBF80346002B01D0FFF7AEFF394B1B68DE
:102060000133384A1360374B1B68012B0BD1364BB9
:10207000DB6C354A43F40053D364334BDB6C03F41D
:102080000053BB61BB69304BDB6C2F4A43F0040348
:10209000D3642D4BDB6C03F004037B617B6903236A
:1020A000FB6603233B6700237B6707F16C0319463C
:1020B000264802F0DDFA41E07B681B68244A93421F
:1020C0003CD14FF40043FB614FF00053FB6507F137
:1020D0001C03184604F078F80346002B01D0FFF7E4
:1020E0006BFF184B1B680133164A1360154B1B68B6
:1020F000012B0BD1144BDB6C134A43F40053D36414
:10210000114BDB6C03F400533B613B690E4BDB6C02
:102110000D4A43F00403D3640B4BDB6C03F0040360
:10212000FB60FB680223FB6603233B6700237B679E
:1021300007F16C031946054802F09AFA00BF803790
:10214000BD4680BD74060020001002400008004813
:102150000001005080B59EB000AF786007F16403C5
:1021600000221A605A609A60DA601A6107F114035B
:1021700050220021184607F06CFC7B681B68204A3F
:10218000934239D14FF480537B614FF00073BB64AD
:1021900007F11403184604F017F80346002B01D08A
:1021A000FFF70AFF174B9B6D164A43F000739365C8
:1021B000144B9B6D03F000733B613B69114BDB6C6F
:1021C000104A43F00103D3640E4BDB6C03F00103B0
:1021D000FB60FB684FF4C0537B660223BB660023A1
:1021E000FB6600233B6709237B6707F164031946FD
:1021F0004FF0904002F03CFA00BF7837BD4680BDFA
:10220000006400400010024080B5A0B000AF7860CC
:1022100007F16C0300221A605A609A60DA601A6152
:1022200007F11C0350220021184607F012FC7B68BE
:102230001B684C4A934254D18023FB610023FB630B
:1022400007F11C03184603F0BFFF0346002B01D023
:10225000FFF7B2FE444BDB6C434A43F00403D36404
:10226000414BDB6C03F00403BB61BB693E4BDB6C91
:102270003D4A43F00103D3643B4BDB6C03F00103A5
:102280007B617B691023FB6612233B6700237B671E
:102290000023BB670423FB6707F16C03194633482F
:1022A00002F0E6F94FF48073FB6612233B670023CC
:1022B0007B670023BB670423FB6707F16C031946A8
:1022C0004FF0904002F0D4F9274B9B6D264A43F41F
:1022D00080039365244B9B6D03F480033B613B6952
:1022E0003CE07B681B68224A934237D14FF48073ED
:1022F000FB6100233B6407F11C03184603F064FFF5
:102300000346002B01D0FFF757FE174BDB6C164A34
:1023100043F00403D364144BDB6C03F00403FB6051
:10232000FB684FF44073FB6612233B6700237B6717
:102330000023BB670823FB6707F16C0319460B48B2
:1023400002F096F9084B9B6D074A43F08043936572
:10235000054B9B6D03F08043BB60BB6800BF8037BB
:10236000BD4680BD005800400010024000080048F3
:102370000078004080B59EB000AF786007F164033C
:1023800000221A605A609A60DA601A6107F1140339
:1023900050220021184607F05CFB7B681B681F4A2F
:1023A000934236D120237B610023FB6207F11403A3
:1023B000184603F009FF0346002B01D0FFF7FCFD90
:1023C000174BDB6D164A43F00103D365144BDB6DED
:1023D00003F001033B613B69114BDB6C104A43F096
:1023E0000103D3640E4BDB6C03F00103FB60FB685D
:1023F0000C237B660223BB660023FB6600233B673E
:102400000C237B6707F1640319464FF0904002F0FC
:102410002FF900BF7837BD4680BD00BF0080004067
:102420000010024080B58AB000AF786007F1140355
:1024300000221A605A609A60DA601A617B681B6831
:10244000174A934228D1174B9B6D164A43F4804399
:102450009365144B9B6D03F480433B613B69114BC7
:10246000DB6C104A43F00203D3640E4BDB6C03F0C9
:102470000203FB60FB684FF470437B610223BB6186
:102480000023FB6100233B6205237B6207F11403F9
:102490001946054802F0ECF800BF2837BD4680BD5C
:1024A00000380040001002400004004880B58AB0A7
:1024B00000AF786007F1140300221A605A609A6036
:1024C000DA601A617B681B68B3F1804F31D1234B0E
:1024D0009B6D224A43F001039365204B9B6D03F0F3
:1024E00001033B613B691D4BDB6C1C4A43F001035C
:1024F000D3641A4BDB6C03F00103FB60FB68202301
:102500007B610223BB610023FB6100233B6201234B
:102510007B6207F1140319464FF0904002F0A8F8CF
:10252000002200211C2001F0D2FC1C2001F0E9FC5B
:1025300010E07B681B680A4A93420BD1074B9B6DE6
:10254000064A43F002039365044B9B6D03F00203BC
:10255000BB60BB6800BF2837BD4680BD001002408D
:102560000004004080B588B000AF786007F10C032C
:1025700000221A605A609A60DA601A617B681B68F0
:10258000114A93421CD1114BDB6C104A43F00103FA
:10259000D3640E4BDB6C03F00103BB60BB684023CC
:1025A000FB6002233B6100237B610023BB610223AC
:1025B000FB6107F10C0319464FF0904002F058F808
:1025C00000BF2037BD4680BD00040040001002401F
:1025D00080B400AFFEE780B400AFFEE780B400AF88
:1025E000FEE780B400AFFEE780B400AFFEE780B442
:1025F00000AF00BFBD465DF8047B704780B400AFFC
:1026000000BFBD465DF8047B704780B400AF00BFDB
:10261000BD465DF8047B704780B500AF00F060F9FF
:1026200000BF80BD80B500AF024804F0DAFA00BFF9
:1026300080BD00BFF004002080B400AF0123184625
:10264000BD465DF8047B704780B582B000AF78600E
:10265000396007F051FA034616221A604FF0FF3333
:1026600018460837BD4680BD80B582B000AF78609F
:102670004FF0FF317868FFF7E7FFFEE780B586B0DF
:1026800000AFF860B9607A6000237B610AE0AFF3C5
:1026900000800146BB685A1CBA60CAB21A707B69D6
:1026A00001337B617A697B689A42F0DB7B6818466C
:1026B0001837BD4680BD80B586B000AFF860B96000
:1026C0007A6000237B6109E0BB685A1CBA601B7802
:1026D0001846AFF300807B6901337B617A697B68C0
:1026E0009A42F1DB7B6818461837BD4680BD80B43E
:1026F00083B000AF78604FF0FF3318460C37BD460B
:102700005DF8047B704780B483B000AF78603960B7
:102710003B684FF400525A60002318460C37BD4600
:102720005DF8047B704780B483B000AF786001230C
:1027300018460C37BD465DF8047B704780B485B001
:1027400000AFF860B9607A60002318461437BD46C0
:102750005DF8047B7047000080B586B000AF7860FC
:10276000144A154BD31A7B617B693B61134B1B6881
:10277000002B02D1114B124A1A60104B1A687B6869
:1027800013443A699A4207D207F0B6F903460C227D
:102790001A604FF0FF3309E0084B1B68FB60074BE2
:1027A0001A687B681344054A1360FB68184618379B
:1027B000BD4680BD00C00120000400007806002056
:1027C000D007002080B400AF064BD3F88830054A0C
:1027D00043F47003C2F8883000BFBD465DF8047B47
:1027E000704700BF00ED00E00D4885460D480E49DA
:1027F0000E4A002302E0D458C4500433C4188C425B
:10280000F9D30B4A0B4C002301E013600432A242BF
:10281000FBD3FFF7D7FF07F075F9FEF7A7FDFEE73B
:1028200000C001200000002008020020D0C00008E5
:1028300008020020CC070020FEE780B582B000AF80
:102840000023FB71032001F037FB0F2000F00EF88E
:102850000346002B02D00123FB7101E0FFF7B2FB1E
:10286000FB7918460837BD4680BD000080B584B0AE
:1028700000AF78600023FB73164B1B68002B22D03F
:10288000154B1A68134B1B684FF47A71B1FBF3F3C5
:10289000B2FBF3F3184601F042FB0346002B0FD1C5
:1028A0007B680F2B09D8002279684FF0FF3001F0C8
:1028B0000EFB0A4A7B68136007E00123FB7304E008
:1028C0000123FB7301E00123FB73FB7B18461037E8
:1028D000BD4680BD3C0000203400002038000020B0
:1028E00080B400AF054B1A68054B1B681344034ABC
:1028F000136000BFBD465DF8047B70477C06002076
:102900003C00002080B400AF034B1B681846BD4656
:102910005DF8047B704700BF7C06002080B584B062
:1029200000AF7860FFF7EEFFB8607B68FB60FB6884
:10293000B3F1FF3F04D0094B1B68FA681344FB60F6
:1029400000BFFFF7DFFF0246BB68D31AFA689A425E
:10295000F7D800BF00BF1037BD4680BD3C00002047
:1029600080B483B000AF786039607B689B6823F4E3
:102970007C123B681A437B689A6000BF0C37BD46E7
:102980005DF8047B704780B483B000AF7860396035
:102990007B689B6823F0E0723B681A437B689A600F
:1029A00000BF0C37BD465DF8047B704780B483B030
:1029B00000AF78607B689B6803F0E07318460C37C3
:1029C000BD465DF8047B704780B487B000AFF86007
:1029D000B9607A603B60FB6860331A46BB689B0055
:1029E00013447B617B691A68084B13407A6802F0D4
:1029F000F8413A680A43134343F000427B691A6086
:102A000000BF1C37BD465DF8047B704700F0FF0334
:102A100080B485B000AF786039607B6860331A4657
:102A20003B689B001344FB60FB681B6803F0F843A2
:102A300018461437BD465DF8047B704780B487B0F4
:102A400000AFF860B9607A60FB6860331A46BB6813
:102A50009B0013447B617B691B6823F000427B6809
:102A60001A437B691A6000BF1C37BD465DF8047BC2
:102A7000704780B487B000AFF860B9607A60FB68D7
:102A800060331A46BB689B0013447B617B691B68FB
:102A900023F080727B681A437B691A6000BF1C3781
:102AA000BD465DF8047B704780B487B000AFF86026
:102AB000B9607A60FB6860331A46BB689B001344B8
:102AC0007B617B691B6823F000727B681A437B691A
:102AD0001A6000BF1C37BD465DF8047B704780B4A8
:102AE00083B000AF786039607B685B6923F0004297
:102AF0003B681A437B685A6100BF0C37BD465DF8DE
:102B0000047B704780B487B000AFF860B9607A602A
:102B1000FB6830331A46BB681B0A9B0003F00C03AA
:102B200013447B617B691A68BB6803F01F031F2194
:102B300001FA03F3DB431A407B689B0E03F01F018D
:102B4000BB6803F01F0301FA03F31A437B691A60A1
:102B500000BF1C37BD465DF8047B704780B487B06A
:102B600000AFF860B9607A60FB6814331A46BB683E
:102B70005B0E9B0003F0040313447B617B691A68BE
:102B8000BB681B0D03F01F03072101FA03F3DB43AE
:102B90001A40BB681B0D03F01F03796801FA03F3A9
:102BA0001A437B691A6000BF1C37BD465DF8047B81
:102BB0007047000080B485B000AFF860B9607A60FB
:102BC0007B680F4A93420AD1FB68D3F8B020BB68F8
:102BD000C3F312031A43FB68C3F8B0200AE0FB6892
:102BE000D3F8B020BB68C3F31203DB431A40FB6881
:102BF000C3F8B02000BF1437BD465DF8047B7047B2
:102C000000007F4080B483B000AF78607B689B6831
:102C100023F0204323F03F037A68936000BF0C3712
:102C2000BD465DF8047B704780B483B000AF786028
:102C30007B689B6803F00053B3F1005F01D101236F
:102C400000E0002318460C37BD465DF8047B704752
:102C500080B483B000AF78607B689B6823F010433A
:102C600023F03F0343F080527B689A6000BF0C372B
:102C7000BD465DF8047B704780B483B000AF7860D8
:102C80007B689B6803F08053B3F1805F01D101231F
:102C900000E0002318460C37BD465DF8047B704702
:102CA00080B483B000AF78607B689B6823F00043FA
:102CB00023F03F0343F002027B689A6000BF0C37A9
:102CC000BD465DF8047B704780B483B000AF786088
:102CD0007B689B6803F00103012B01D1012300E015
:102CE000002318460C37BD465DF8047B704780B45E
:102CF00083B000AF78607B689B6803F00203022B0F
:102D000001D1012300E0002318460C37BD465DF8D1
:102D1000047B704780B483B000AF78607B689B68A9
:102D200003F00403042B01D1012300E00023184623
:102D30000C37BD465DF8047B704780B483B000AFAC
:102D400078607B689B6803F00803082B01D101239E
:102D500000E0002318460C37BD465DF8047B704741
:102D600090B589B000AF78600023FB770023BB608B
:102D70007B68002B01D10123A1E17B685B69002BFB
:102D80007B68DB6D002B09D17868FFF73FF97B6822
:102D900000221A667B68002283F858207B681B6833
:102DA0001846FFF741FF0346002B04D07B681B68E1
:102DB0001846FFF727FF7B681B681846FFF75CFF84
:102DC0000346002B15D17B681B681846FFF740FFB0
:102DD0009A4B1B689B099A4AA2FB03239B09013368
:102DE0005B00BB6002E0BB68013BBB60BB68002BC3
:102DF000F9D17B681B681846FFF73EFF0346002B9E
:102E00000DD17B68DB6D43F010027B68DA657B686F
:102E10001B6E43F001027B681A660123FB777B6817
:102E20001B681846FFF776FF78617B68DB6D03F05F
:102E30001003002B40F03A817B69002B40F0368173
:102E40007B68DB6D23F4817343F002027B68DA65F3
:102E50007B681B681846FFF737FF0346002B37D106
:102E60007B681B68B3F1A04F04D07B681B68754A70
:102E700093420FD14FF0A040FFF726FF0446714860
:102E8000FFF722FF03462343002B0CBF012300233F
:102E9000DBB208E06C48FFF717FF0346002B0CBFBE
:102EA00001230023DBB2002B12D07B681B68B3F137
:102EB000A04F04D07B681B68624A934201D1634AE9
:102EC00000E0634A7B685B6819461046FFF748FDDF
:102ED0007B685B7F5A037B68DB6B1A437B68DB682C
:102EE0001A437B689B681A437B6893F824301B0461
:102EF0001343BB617B6893F82430012B06D17B68B8
:102F00009B6A013B5B04BA691343BB617B68DB6A64
:102F1000002B09D07B68DB6A03F478727B681B6B3B
:102F20001343BA691343BB617B681B68DA68494B7A
:102F300013407A681268B9690B43D3607B681B68D9
:102F40001B6923F040617B685A6B7B681B680A43EE
:102F50001A617B681B681846FFF7DCFE38617B68E6
:102F60001B681846FFF7E9FEF8603B69002B7BD130
:102F7000FB68002B78D17B681B7F9A037B6893F8F2
:102F800038305B001343BB617B681B68DB6823F44C
:102F9000804323F002037A681268B9690B43D36057
:102FA0007B681B69002B17D07B681B681A697B68DC
:102FB0001B6842F480321A617B681B68D3F8C0300A
:102FC00023F47F5323F03F037A6811697A6812680B
:102FD0000B43C2F8C03013E07B681B681A697B683A
:102FE0001B6822F480321A617B681B68D3F8C030FA
:102FF0007A68126823F47F5323F03F03C2F8C0308D
:103000007B6893F84030012B26D17B681B681B69D5
:1030100023F4FF6323F004037A68516C7A68926C9E
:1030200011437A68D26C11437A68126D0A431A43CD
:103030007B681B6842F001021A6115E03400002031
:10304000632D3E05000100500004005000030050B5
:10305000000700500740F0FF7B681B681A697B6817
:103060001B6822F001021A617B685B69012B0CD19D
:103070007B681B681B6B23F00F017B681B6A5A1E61
:103080007B681B680A431A6307E07B681B681A6B3E
:103090007B681B6822F00F021A637B68DB6D23F0EC
:1030A000030343F001027B68DA6507E07B68DB6DB0
:1030B00043F010027B68DA650123FB77FB7F18463B
:1030C0002437BD4690BD00BF80B5B6B000AF786074
:1030D0003960002387F8D7300023FB607B6893F8C2
:1030E0005830012B02D1022300F004BC7B6801227E
:1030F00083F858207B681B681846FFF70BFE0346D1
:10310000002B40F0E8837B6818683B6859683B688F
:103110001B681A46FFF7F6FC7B681B681846FFF72A
:10312000F9FDC7F8D0007B681B681846FFF705FE5D
:10313000C7F8CC00D7F8D030002B40F0D981D7F8B1
:10314000CC30002B40F0D4813B689B68B3F1004F3A
:103150000FD17B6818683B681B6800221946FFF78F
:10316000FDFC7B681B684FF000411846FFF7B7FC79
:103170000EE07B6818683B6819683B689B681A46D4
:10318000FFF7ECFC7B681B6800211846FFF7A7FCE3
:103190003B685A697B681B68DB68DB0803F0030344
:1031A0005B0002FA03F3C7F8C8303B681B69042BC5
:1031B00022D07B6818683B6819693B681A68D7F8A1
:1031C000C830FFF701FC7B6818683B6819693B68E9
:1031D0009B691A46FFF74DFC7B6818683B681969C4
:1031E0003B681B7F012B02D14FF0007300E00023EE
:1031F0001A46FFF759FC7BE17B681B6800211846E3
:10320000FFF706FC0346C3F31203002B0AD17B68C9
:103210001B6800211846FFF7FBFB03469B0E03F0DB
:103220001F021EE07B681B6800211846FFF7F0FBB9
:103230000346C7F8BC30D7F8BC3093FAA3F3C7F8FD
:10324000B830D7F8B830C7F8C030D7F8C030002B46
:1032500001D1202304E0D7F8C030B3FA83F3DBB206
:103260001A463B681B68C3F31203002B05D13B6869
:103270001B689B0E03F01F0318E03B681B68C7F830
:10328000B030D7F8B03093FAA3F3C7F8AC30D7F822
:10329000AC30C7F8B430D7F8B430002B01D12023BC
:1032A00004E0D7F8B430B3FA83F3DBB29A4206D124
:1032B0007B681B68002200211846FFF7BFFB7B6874
:1032C0001B6801211846FFF7A3FB0346C3F3120353
:1032D000002B0AD17B681B6801211846FFF798FB79
:1032E00003469B0E03F01F021EE07B681B68012152
:1032F0001846FFF78DFB0346C7F8A430D7F8A43073
:1033000093FAA3F3C7F8A030D7F8A030C7F8A830D5
:10331000D7F8A830002B01D1202304E0D7F8A8303B
:10332000B3FA83F3DBB21A463B681B68C3F312039C
:10333000002B05D13B681B689B0E03F01F0318E0B0
:103340003B681B68C7F89830D7F8983093FAA3F316
:10335000C7F89430D7F89430C7F89C30D7F89C3031
:10336000002B01D1202304E0D7F89C30B3FA83F37B
:10337000DBB29A4206D17B681B6800220121184605
:10338000FFF75CFB7B681B6802211846FFF740FBD8
:103390000346C3F31203002B0AD17B681B6802218A
:1033A0001846FFF735FB03469B0E03F01F021EE095
:1033B0007B681B6802211846FFF72AFB0346C7F803
:1033C0008C30D7F88C3093FAA3F3C7F88830D7F84D
:1033D0008830C7F89030D7F89030002B01D12023E7
:1033E00004E0D7F89030B3FA83F3DBB21A463B68B7
:1033F0001B68C3F31203002B05D13B681B689B0EAF
:1034000003F01F0316E03B681B68C7F88030D7F84D
:10341000803093FAA3F3FB67FB6FC7F88430D7F8CB
:103420008430002B01D1202304E0D7F88430B3FA94
:1034300083F3DBB29A4206D17B681B68002202212B
:103440001846FFF7FBFA7B681B6803211846FFF755
:10345000DFFA0346C3F31203002B0AD17B681B6813
:1034600003211846FFF7D4FA03469B0E03F01F0210
:1034700017E07B681B6803211846FFF7C9FA03466B
:103480007B677B6F93FAA3F33B673B6FBB67BB6FB5
:10349000002B01D1202303E0BB6FB3FA83F3DBB22F
:1034A0001A463B681B68C3F31203002B05D13B6827
:1034B0001B689B0E03F01F0311E03B681B68BB6693
:1034C000BB6E93FAA3F37B667B6EFB66FB6E002BF1
:1034D00001D1202303E0FB6EB3FA83F3DBB29A42FF
:1034E00006D17B681B68002203211846FFF7A6FA65
:1034F0007B681B681846FFF7E7FB0346002B40F08C
:103500003D817B6818683B6819683B68DB681A4630
:10351000FFF750FB3B68DB68A24A934240F02E81E4
:103520007B6818683B681B68C3F31203002B0BD140
:103530003B681B689B0E013303F01F03092B94BFEC
:1035400001230023DBB219E03B681B68FB65FB6DC0
:1035500093FAA3F3BB65BB6D3B663B6E002B01D1B9
:10356000202303E03B6EB3FA83F3DBB2013303F0B5
:103570001F03092B94BF01230023DBB2002B79D05A
:103580003B681B68C3F31203002B07D13B681B6821
:103590009B0E01339B0603F0F84215E03B681B6865
:1035A0003B653B6D93FAA3F3FB64FB6C7B657B6D22
:1035B000002B01D1202303E07B6DB3FA83F3DBB250
:1035C00001339B0603F0F8423B681B68C3F3120308
:1035D000002B09D13B681B689B0E013303F01F03CE
:1035E000012101FA03F317E03B681B687B647B6CE5
:1035F00093FAA3F33B643B6CBB64BB6C002B01D11F
:10360000202303E0BB6CB3FA83F3DBB2013303F096
:103610001F03012101FA03F342EA03013B681B681F
:10362000C3F31203002B0AD13B681B689B0E0133C6
:1036300003F01F0213465B0013441B0518E03B68B0
:103640001B68BB63BB6B93FAA3F37B637B6BFB636E
:10365000FB6B002B01D1202303E0FB6BB3FA83F358
:10366000DBB2013303F01F0213465B0013441B055A
:103670000B437EE03B681B68C3F31203002B07D1AA
:103680003B681B689B0E01339B0603F0F84215E074
:103690003B681B68FB62FB6A93FAA3F3BB62BB6ADD
:1036A0003B633B6B002B01D1202303E03B6BB3FA60
:1036B00083F3DBB201339B0603F0F8423B681B68DF
:1036C000C3F31203002B09D13B681B689B0E013327
:1036D00003F01F03012101FA03F317E03B681B68A5
:1036E0003B623B6A93FAA3F3FB61FB697B627B6AF3
:1036F000002B01D1202303E07B6AB3FA83F3DBB212
:10370000013303F01F03012101FA03F342EA03012D
:103710003B681B68C3F31203002B0DD13B681B6889
:103720009B0E013303F01F0213465B0013441E3B44
:103730001B0543F000731BE03B681B687B617B69E2
:1037400093FAA3F33B613B69BB61BB69002B01D1D9
:10375000202303E0BB69B3FA83F3DBB2013303F048
:103760001F0213465B0013441E3B1B0543F000730E
:103770000B433A6892681946FFF7F0F93B681A68FC
:10378000094B1340002B00F0AF807B681B68B3F13E
:10379000A04F04D07B681B68044A93420AD1044BB3
:1037A00009E000BF00007F400000088000010050D9
:1037B00000030050514B1846FFF7F8F8C7F8C40053
:1037C0003B681B684E4A934204D03B681B684D4AD5
:1037D000934234D1D7F8C43003F40003002B2ED128
:1037E0007B681B68B3F1A04F7ED17B681B68B3F187
:1037F000A04F04D07B681B68434A934201D1434ADF
:1038000000E03E4AD7F8C43043F40003194610469E
:10381000FFF7B9F83E4B1B689B093E4AA2FB032306
:103820009B095A1C13465B0013449B00FB6002E09B
:10383000FB68013BFB60FB68002BF9D154E03B685F
:103840001B68354A934220D1D7F8C43003F0807307
:10385000002B1AD17B681B68B3F1A04F44D17B6861
:103860001B68B3F1A04F04D07B681B68264A9342C3
:1038700001D1264A00E0214AD7F8C43043F08073D2
:1038800019461046FFF77FF82EE03B681B68234A75
:10389000934229D1D7F8C43003F48003002B23D1FD
:1038A0007B681B68184A93421ED07B681B68B3F183
:1038B000A04F04D07B681B68134A934201D1134A7E
:1038C00000E00E4AD7F8C43043F48003194610468E
:1038D000FFF759F808E07B68DB6D43F020027B6856
:1038E000DA65012387F8D7307B68002283F85820F7
:1038F00097F8D7301846D837BD4680BD000700502E
:10390000000021C31000C0900001005000030050CF
:1039100034000020632D3E05000052C7000084CB18
:1039200080B584B000AF78607B681B681846FFF7ED
:10393000DEF9F8607B681B681846FFF7C5F9034697
:10394000002B47D0FB68002B44D17B681B689B6829
:1039500003F00D03012B0CD17B681B681846FFF7A1
:103960009FF97B681B6803221A60FEF7CBFFB860E3
:1039700029E07B68DB6D43F010027B68DA657B68C9
:103980001B6E43F001027B681A66012323E0FEF7F9
:10399000B9FF0246BB68D31A022B14D97B681B6897
:1039A0009B6803F00103002B0DD07B68DB6D43F0B7
:1039B00010027B68DA657B681B6E43F001027B684E
:1039C0001A66012307E07B681B689B6803F001030C
:1039D000002BDCD1002318461037BD4680BD80B4D3
:1039E00083B000AF78607B689B6803F00103012B14
:1039F00001D1012300E0002318460C37BD465DF8D5
:103A0000047B704780B483B000AF786039607B6816
:103A10009B6823F0404323F03F033A6802F0804262
:103A2000134343F000427B689A6000BF0C37BD46E9
:103A30005DF8047B704780B483B000AF78607B682A
:103A40009B6803F00043B3F1004F01D1012300E074
:103A5000002318460C37BD465DF8047B704780B4E0
:103A600083B000AF78607B689B6803F00403042B8D
:103A700001D1012300E0002318460C37BD465DF854
:103A8000047B704780B584B000AF78603960002354
:103A9000BB607B6893F85830012B01D102234DE0C5
:103AA0007B68012283F858207868FFF739FF0346C6
:103AB000FB73FB7B002B36D17B68DB6D23F48853D3
:103AC00023F0020343F002027B68DA657B681B681F
:103AD00039681846FFF796FF14E0BB680133BB60F6
:103AE000BB68184A93420DD97B68DB6D23F0120343
:103AF00043F010027B68DA657B68002283F8582067
:103B000001231BE07B681B681846FFF794FF034600
:103B1000002BE2D17B68DB6D23F0030343F001024D
:103B20007B68DA6505E07B68DB6D43F010027B683B
:103B3000DA657B68002283F85820FB7B1846103733
:103B4000BD4680BD01DE040090B5A1B000AF786035
:103B50003960002387F87F307B6893F85830012B59
:103B600001D10223CBE07B68012283F85820002397
:103B70007B660023BB667B681B68B3F1A04F02D154
:103B8000614BBB6001E00023BB60BB68002B0BD125
:103B90007B68DB6D43F020027B68DA657B6800227E
:103BA00083F858200123AAE0BB681846FFF757FFA7
:103BB000B8677B681B681846FFF751FF0346002B68
:103BC00040F08C80BB6F002B40F088807B681B68C6
:103BD000B3F1A04F04D07B681B684B4A934201D1DC
:103BE0004A4B00E04A4B7B673B681B68002B41D087
:103BF0007B6F9B6823F460423B6859687B6893F84D
:103C000038305B030B431A437B6F9A607B681B68F9
:103C1000B3F1A04F04D07B681B683B4A93420FD19D
:103C20004FF0A040FFF7DBFE04463748FFF7D7FE12
:103C300003462343002B0CBF01230023DBB208E023
:103C40003448FFF7CCFE0346002B0CBF01230023B2
:103C5000DBB2002B4CD07B6F9B6823F4716323F0A5
:103C60000F033A6811683A6892680A431A437B6FF7
:103C70009A603DE07B6F9B6823F460427B6F9A60A3
:103C80007B681B68B3F1A04F04D07B681B681E4A99
:103C900093420FD14FF0A040FFF7A1FE04461A480F
:103CA000FFF79DFE03462343002B0CBF0123002397
:103CB000DBB208E01748FFF792FE0346002B0CBF6B
:103CC00001230023DBB2002B12D07B6F9B6823F40F
:103CD000716323F00F037A6F936009E07B68DB6DFB
:103CE00043F020027B68DA65012387F87F3000E02B
:103CF00000BF7B68002283F8582097F87F30184671
:103D00008437BD4690BD00BF000100500003005045
:103D1000000700500004005080B485B000AF786008
:103D20007B6803F00703FB600C4BDB68BB60BA6881
:103D30004FF6FF031340BB60FB681A02BB681343D6
:103D400043F0BF6343F40033BB60044ABB68D360F5
:103D500000BF1437BD465DF8047B704700ED00E0FE
:103D600080B400AF044BDB681B0A03F0070318465E
:103D7000BD465DF8047B704700ED00E080B483B081
:103D800000AF0346FB7197F90730002B0BDBFB7983
:103D900003F01F02074997F907305B09012000FA79
:103DA00002F241F8232000BF0C37BD465DF8047BCA
:103DB000704700BF00E100E080B483B000AF03466D
:103DC0003960FB7197F90730002B0ADB3B68DAB2E8
:103DD0000C4997F907301201D2B20B4483F8002343
:103DE0000AE03B68DAB20849FB7903F00F03043BB1
:103DF0001201D2B20B441A7600BF0C37BD465DF8F3
:103E0000047B704700E100E000ED00E080B489B081
:103E100000AFF860B9607A60FB6803F00703FB61EC
:103E2000FB69C3F10703042B28BF0423BB61FB69B3
:103E30000433062B02D9FB69033B00E000237B61BE
:103E40004FF0FF32BB6902FA03F3DA43BB681A4052
:103E50007B699A404FF0FF317B6901FA03F3D94344
:103E60007B680B40134318462437BD465DF8047B3E
:103E70007047000080B582B000AF78607B68013B7E
:103E8000B3F1807F01D301230FE00A4A7B68013B35
:103E900053600F214FF0FF30FFF78EFF054B0022DC
:103EA0009A60044B07221A60002318460837BD4663
:103EB00080BD00BF10E000E080B582B000AF786048
:103EC0007868FFF729FF00BF0837BD4680BD80B581
:103ED00086B000AF0346B9607A60FB73FFF740FF1E
:103EE00078617A68B9687869FFF790FF024697F9B8
:103EF0000F3011461846FFF75FFF00BF1837BD4669
:103F000080BD80B582B000AF0346FB7197F90730E2
:103F10001846FFF733FF00BF0837BD4680BD80B5A8
:103F200082B000AF78607868FFF7A4FF03461846B8
:103F30000837BD4680BD000080B584B000AF786012
:103F40007B68002B01D1012347E17B6893F85C304B
:103F5000DBB2002B06D17B68002283F85D207868F5
:103F6000FEF7F8F87B681B689A697B681B6822F08B
:103F700010029A61FEF7C6FCF86012E0FEF7C2FC80
:103F80000246FB68D31A0A2B0BD97B681B6E43F0E1
:103F900001027B681A667B68032283F85C20012398
:103FA0001BE17B681B689B6903F00803082BE5D0C5
:103FB0007B681B689A697B681B6842F001029A6102
:103FC000FEF7A0FCF86012E0FEF79CFC0246FB68DE
:103FD000D31A0A2B0BD97B681B6E43F001027B6856
:103FE0001A667B68032283F85C200123F5E07B6876
:103FF0001B689B6903F00103002BE5D07B681B68FD
:104000009A697B681B6842F002029A617B681B68B0
:10401000744A934203D1744A7B685B6813607B687F
:104020001B7C012B08D17B681B689A697B681B6825
:1040300022F040029A6107E07B681B689A697B68FE
:104040001B6842F040029A617B685B7C012B08D1BF
:104050007B681B689A697B681B6842F480429A619E
:1040600007E07B681B689A697B681B6822F48042C2
:104070009A617B689B7C012B08D17B681B689A69DD
:104080007B681B6822F480529A6107E07B681B689A
:104090009A697B681B6842F480529A617B681B684E
:1040A0009B6923F440717B689A687B681B680A43AC
:1040B0009A617B681B689A697B681B6822F0A4027E
:1040C0009A617B681B681A697B681B6822F0100282
:1040D0001A617B68DB68012B08D17B681B689A69D1
:1040E0007B681B6842F004029A612CE07B68DB6805
:1040F000002B28D07B68DB68022B1CD07B681B68F8
:104100009A697B681B6842F080029A617B681B6831
:104110001A697B681B6842F010021A617B68DB68D1
:10412000032B10D17B681B689A697B681B6842F07F
:1041300020029A6107E07B681B689A697B681B68AC
:1041400042F020029A617B689B69013B5A067B68BA
:10415000DB69013B1B021A437B681B6A013B42EA95
:1041600003017B685B69013B1A047B681B680A4397
:10417000DA617B689B68B3F5407F15D17B689B6AE9
:104180005A1E7B68DB6A013B1B021A437B681B6B70
:10419000013B1B0142EA03017B685B6A013B1A0495
:1041A0007B681B680A43DA607B681B68D3F8C01021
:1041B0007B68DA6B7B681B680A43C3F8C0207868A9
:1041C00000F078F97B6800229A657B6800221A6605
:1041D0007B68012283F85C20002318461037BD4617
:1041E00080BD00BF006400400065004080B483B023
:1041F00000AF78607B6893F85C30DBB2012B10D1A4
:104200007B68022283F85C207B681B689A697B6864
:104210001B6822F001029A617B6800221A66002363
:1042200006E07B681B6E43F004027B681A6601237C
:1042300018460C37BD465DF8047B704780B586B0E4
:1042400000AFF860B9607A60FB6893F85C30DBB26D
:10425000022B2CD1FB681B68D3F8C43003F4001385
:10426000002B07D0FB681B6E43F40072FB681A66D4
:10427000012323E0FB681B68D3F8C4301B0C03F058
:1042800003037B617B697A68B968F86800F074F9A8
:10429000FB681B6801217A6901FA02F2C3F8CC209D
:1042A00001227B699A40FB689A65002306E0FB685F
:1042B0001B6E43F00802FB681A6601231846183784
:1042C000BD4680BD80B48BB000AFF860B9607A6045
:1042D0003B60FB6893F85C30FB76FB7E022B40F082
:1042E000BC80BB68402B21D1FB681B68D3F89030A1
:1042F00003F00F03002B07D1FB681B6E43F48072A1
:10430000FB681A660123AFE0FB681B68D3F89030A6
:104310001B0A03F00303FB61FB68996CFA691346FF
:10432000DB001344DB000B447B6220E0FB681B686E
:10433000D3F8983003F00F03002B07D1FB681B6EF6
:1043400043F48072FB681A6601238DE0FB681B68EA
:10435000D3F898301B0A03F00303FB61FB68D96CA8
:10436000FA691346DB001344DB000B447B627B6A73
:104370001B6803F080427B685A607B685B68002B97
:1043800007D17B6A1B689B0CC3F30A027B681A6027
:1043900005E07B6A1B6823F060427B681A607B6AD9
:1043A0001B6803F000527B689A607B6A1B6803F00D
:1043B00000427B681A617B6A04337B627B6A1B68FC
:1043C0009AB27B68DA617B6A1B6803F470227B68AF
:1043D000DA607B6A1B6803F480127B685A617B6A2F
:1043E0001B6803F400127B689A617B6A1B681B0ED2
:1043F00003F07F027B681A627B6A1B68DA0F7B68B6
:104400005A627B6A04337B627B6A7B6100233B6276
:104410000AE07A693B6A1A4439683B6A0B441278AD
:104420001A703B6A01333B627B68DB681B0C114AE4
:10443000D35C1A463B6A9342EBD3BB68402B05D151
:10444000FB681B68FA69C3F8942004E0FB681B68EA
:10445000FA69C3F89C20002306E0FB681B6E43F05A
:104460000802FB681A66012318462C37BD465DF822
:10447000047B7047BCBC000880B485B000AF786096
:1044800039603B68402B07D17B681B68D3F89030BC
:1044900003F00F03FB6006E07B681B68D3F89830DD
:1044A00003F00F03FB60FB6818461437BD465DF848
:1044B000047B704780B485B000AF78602C4BBB6044
:1044C0007B681B682B4A934203D1BB6803F5547386
:1044D000BB607B68BA681A647B681B68D3F880305D
:1044E00023F4F8117B685B6B1A047B681B680A4332
:1044F000C3F88020BB6803F170027B685A647B6854
:104500001B68D3F8803023F070617B689B6B1A06C0
:104510007B681B680A43C3F88020BB6803F1B002C4
:104520007B689A64BB6803F5C4727B68DA64BB6815
:1045300003F518727B681A65BB6803F51E727B6809
:104540005A65BB68FB6005E0FB6800221A60FB68E7
:104550000433FB60BB6803F55473FA689A42F3D3E3
:1045600000BF00BF1437BD465DF8047B704700BF35
:1045700000A400400068004080B489B000AFF8603B
:10458000B9607A603B60BB685B68002B0AD1BB688E
:104590001A69BB689B681A43BB681B689B0413437A
:1045A000FB610AE0BB681A69BB689B681A43BB6879
:1045B0001B68134343F08043FB61BB681B6A1A0608
:1045C000BB68DB691A43BB689B691A43BB685B69BC
:1045D0001A43BB68DB6813433B61FB68596D3A685B
:1045E0001346DB001344DB000B44BB61BB69FA6973
:1045F0001A60BB690433BB61BB693A691A60BB6965
:104600000433BB6100237B6120E07B6903337A685C
:1046100013441B781A067B69023379680B441B78B4
:104620001B041A437B69013379680B441B781B0216
:10463000134379687A690A4412781A43BB691A608D
:10464000BB690433BB617B6904337B61BB68DB6896
:104650001B0C064AD35C1A467B699342D5D300BF34
:1046600000BF2437BD465DF8047B7047BCBC000822
:1046700080B487B000AF7860396000237B615AE175
:104680003B681A6801217B6901FA03F31340FB6060
:10469000FB68002B00F04C813B685B6803F0030370
:1046A000012B05D03B685B6803F00303022B30D17C
:1046B0007B689B683B617B695B00032202FA03F322
:1046C000DB433A6913403B613B68DA687B695B0016
:1046D00002FA03F33A6913433B617B683A699A60D3
:1046E0007B685B683B6101227B6902FA03F3DB4371
:1046F0003A6913403B613B685B681B0903F00102A8
:104700007B6902FA03F33A6913433B617B683A69B8
:104710005A603B685B6803F00303032B17D07B6888
:10472000DB683B617B695B00032202FA03F3DB4336
:104730003A6913403B613B689A687B695B0002FA07
:1047400003F33A6913433B617B683A69DA603B687B
:104750005B6803F00303022B23D17B69DA087B68D3
:10476000083253F822303B617B6903F007039B005A
:104770000F2202FA03F3DB433A6913403B613B68C3
:104780001A697B6903F007039B0002FA03F33A6995
:1047900013433B617B69DA087B680832396943F867
:1047A00022107B681B683B617B695B00032202FA75
:1047B00003F3DB433A6913403B613B685B6803F0FA
:1047C00003027B695B0002FA03F33A6913433B611E
:1047D0007B683A691A603B685B6803F44033002BDE
:1047E00000F0A6805B4B1B6E5A4A43F00103136630
:1047F000584B1B6E03F00103BB60BB68564A7B69D4
:104800009B08023352F823303B617B6903F00303BA
:104810009B000F2202FA03F3DB433A6913403B612A
:104820007B68B3F1904F1FD07B684C4A934219D0FC
:104830007B684B4A934213D07B684A4A93420DD01F
:104840007B68494A934207D07B68484A934201D12A
:1048500005230AE0062308E0042306E0032304E01E
:10486000022302E0012300E000237A6902F0030240
:10487000920093403A6913433B6137497B699B0837
:1048800002333A6941F82320394B9B683B61FB684E
:10489000DB433A6913403B613B685B6803F4801378
:1048A000002B03D03A69FB6813433B61304A3B69F4
:1048B00093602F4BDB683B61FB68DB433A69134035
:1048C0003B613B685B6803F40013002B03D03A693B
:1048D000FB6813433B61264A3B69D360244B5B680A
:1048E0003B61FB68DB433A6913403B613B685B68B3
:1048F00003F40033002B03D03A69FB6813433B6198
:104900001B4A3B6953601A4B1B683B61FB68DB43E6
:104910003A6913403B613B685B6803F48033002BCA
:1049200003D03A69FB6813433B61114A3B6913604A
:104930007B6901337B613B681A687B6922FA03F368
:10494000002B7FF49DAE00BF00BF1C37BD465DF855
:10495000047B704700100240000001400004004842
:1049600000080048000C00480010004800140048EF
:104970000004014080B485B000AF78600B467B80B6
:104980007B681A697B881340002B02D00123FB73DC
:1049900001E00023FB73FB7B18461437BD465DF82E
:1049A000047B704780B483B000AF78600B467B8097
:1049B00013467B707B78002B03D07A887B689A61E2
:1049C00002E07A887B689A6200BF0C37BD465DF8CA
:1049D000047B704780B485B000AF78600B467B8065
:1049E0007B685B69FB607A88FB6813401A04FB688C
:1049F000D9437B880B401A437B689A6100BF143708
:104A0000BD465DF8047B704780B582B000AF78602A
:104A10007B68002B01D1012381E07B6893F8413052
:104A2000DBB2002B06D17B68002283F84020786837
:104A3000FDF7EAFB7B68242283F841207B681B6832
:104A40001A687B681B6822F001021A607B685A684A
:104A50007B681B6822F070621A617B681B689A6829
:104A60007B681B6822F400429A607B68DB68012B3C
:104A700007D17B689A687B681B6842F400429A60A1
:104A800006E07B689A687B681B6842F404429A607F
:104A90007B68DB68022B04D17B681B684FF40062E3
:104AA0005A607B681B685B687A68126843F0007321
:104AB00043F4004353607B681B68DA687B681B68BB
:104AC00022F40042DA607B681A697B685B6942EA1B
:104AD00003017B689B691A027B681B680A43DA60E2
:104AE0007B68D9697B681A6A7B681B680A431A600D
:104AF0007B681B681A687B681B6842F001021A60B9
:104B00007B6800225A647B68202283F841207B68FE
:104B100000221A637B68002283F842200023184693
:104B20000837BD4680BD000080B588B002AFF86090
:104B3000084611461A4603467B810B463B811346C5
:104B4000FB80FB6893F84130DBB2202B40F0F9800A
:104B50003B6A002B02D0BB8C002B05D1FB684FF4C5
:104B600000725A640123EDE0FB6893F84030012B9A
:104B700001D10223E6E0FB68012283F84020FDF723
:104B8000C1FE78617B690093192301224FF4004133
:104B9000F86800F0C3FA0346002B01D00123D1E0EE
:104BA000FB68212283F84120FB68402283F84220E1
:104BB000FB6800225A64FB683A6A5A62FB68BA8C46
:104BC0005A85FB6800225A63F8883A8979897B699B
:104BD0000193BB6A00930346F86800F0D3F90346DB
:104BE000002B05D0FB68002283F840200123A9E0B8
:104BF000FB685B8D9BB2FF2B0ED9FB68FF221A85E9
:104C0000FB681B8DDAB27989002300934FF0807323
:104C1000F86800F02BFC0FE0FB685B8D9AB2FB6834
:104C20001A85FB681B8DDAB27989002300934FF057
:104C30000073F86800F01AFC7A69B96AF86800F045
:104C4000ADFA0346002B01D001237BE0FB685B6AD1
:104C50001A78FB681B689A62FB685B6A5A1CFB68DF
:104C60005A62FB685B8D9BB2013B9AB2FB685A8526
:104C7000FB681B8D013B9AB2FB681A85FB685B8D54
:104C80009BB2002B34D0FB681B8D002B30D17B698D
:104C90000093BB6A00228021F86800F03FFA0346C7
:104CA000002B01D001234DE0FB685B8D9BB2FF2BF5
:104CB0000ED9FB68FF221A85FB681B8DDAB2798951
:104CC000002300934FF08073F86800F0CFFB0FE0F3
:104CD000FB685B8D9AB2FB681A85FB681B8DDAB2A4
:104CE0007989002300934FF00073F86800F0BEFB51
:104CF000FB685B8D9BB2002B9ED17A69B96AF8681C
:104D000000F08CFA0346002B01D001231AE0FB6867
:104D10001B682022DA61FB681B685968FB681A6807
:104D20000A4B0B405360FB68202283F84120FB684C
:104D3000002283F84220FB68002283F840200023F1
:104D400000E0022318461837BD4680BD00E800FE8B
:104D500080B588B002AFF860084611461A4603468F
:104D60007B810B463B811346FB80FB6893F8413007
:104D7000DBB2202B40F0FD803B6A002B02D0BB8CC5
:104D8000002B05D1FB684FF400725A640123F1E057
:104D9000FB6893F84030012B01D10223EAE0FB6865
:104DA000012283F84020FDF7ADFD78617B69009317
:104DB000192301224FF40041F86800F0AFF90346CF
:104DC000002B01D00123D5E0FB68222283F841208B
:104DD000FB68402283F84220FB6800225A64FB688B
:104DE0003A6A5A62FB68BA8C5A85FB6800225A6399
:104DF000F8883A8979897B690193BB6A00930346F5
:104E0000F86800F013F90346002B05D0FB68002278
:104E100083F840200123ADE0FB685B8D9BB2FF2B44
:104E20000ED9FB68FF221A85FB681B8DDAB27989DF
:104E3000524B00934FF08073F86800F017FB0FE0BF
:104E4000FB685B8D9AB2FB681A85FB681B8DDAB232
:104E500079894A4B00934FF00073F86800F006FB25
:104E60007B690093BB6A00220421F86800F056F9C0
:104E70000346002B01D001237CE0FB681B685A6AC3
:104E8000FB685B6AD2B21A70FB685B6A5A1CFB68EB
:104E90005A62FB681B8D013B9AB2FB681A85FB685E
:104EA0005B8D9BB2013B9AB2FB685A85FB685B8DB8
:104EB0009BB2002B34D0FB681B8D002B30D17B695B
:104EC0000093BB6A00228021F86800F027F90346AE
:104ED000002B01D001234DE0FB685B8D9BB2FF2BC3
:104EE0000ED9FB68FF221A85FB681B8DDAB279891F
:104EF000002300934FF08073F86800F0B7FA0FE0DA
:104F0000FB685B8D9AB2FB681A85FB681B8DDAB271
:104F10007989002300934FF00073F86800F0A6FA37
:104F2000FB685B8D9BB2002B9AD17A69B96AF868ED
:104F300000F074F90346002B01D001231AE0FB684E
:104F40001B682022DA61FB681B685968FB681A68D5
:104F50000B4B0B405360FB68202283F84120FB6819
:104F6000002283F84220FB68002283F840200023BF
:104F700000E0022318461837BD4680BD002400809B
:104F800000E800FE80B586B002AFF8600846114622
:104F90001A4603467B810B463B811346FB80FB8808
:104FA000DAB27989204B00934FF08073F86800F0F3
:104FB0005DFAFA69B969F86800F0F0F80346002B69
:104FC00001D001232CE0FB88012B05D13B89DAB20B
:104FD000FB681B689A6215E03B891B0A9BB2DAB238
:104FE000FB681B689A62FA69B969F86800F0D6F83C
:104FF0000346002B01D0012312E03B89DAB2FB68A3
:105000001B689A62FB690093BB6900228021F868E3
:1050100000F084F80346002B01D0012300E00023B8
:1050200018461037BD4680BD0020008080B586B090
:1050300002AFF860084611461A4603467B810B46CC
:105040003B811346FB80FB88DAB27989204B0093C1
:105050000023F86800F00AFAFA69B969F86800F004
:105060009DF80346002B01D001232CE0FB88012B87
:1050700005D13B89DAB2FB681B689A6215E03B896F
:105080001B0A9BB2DAB2FB681B689A62FA69B969BB
:10509000F86800F083F80346002B01D0012312E0EA
:1050A0003B89DAB2FB681B689A62FB690093BB69B3
:1050B00000224021F86800F031F80346002B01D0AF
:1050C000012300E0002318461037BD4680BD00BF15
:1050D0000020008080B483B000AF78607B681B68DC
:1050E0009B6903F00203022B03D17B681B6800223B
:1050F0009A627B681B689B6903F00103012B07D050
:105100007B681B689A697B681B6842F001029A61A0
:1051100000BF0C37BD465DF8047B704780B584B096
:1051200000AFF860B9603B601346FB7122E03B685A
:10513000B3F1FF3F1ED0FDF7E5FB0246BB69D31A72
:105140003A689A4202D33B68002B13D1FB685B6C30
:1051500043F02002FB685A64FB68202283F8412058
:10516000FB68002283F84220FB68002283F840207D
:1051700001230FE0FB681B689A69BB681340BA689B
:105180009A420CBF01230023DBB21A46FB799A42F4
:10519000CDD0002318461037BD4680BD80B584B001
:1051A00000AFF860B9607A602CE07A68B968F86896
:1051B00000F070F80346002B01D001232AE0BB6801
:1051C000B3F1FF3F1ED0FDF79DFB02467B68D31A6B
:1051D000BA689A4202D3BB68002B13D1FB685B6CA0
:1051E00043F02002FB685A64FB68202283F84120C8
:1051F000FB68002283F84220FB68002283F84020ED
:10520000012307E0FB681B689B6903F00203022B84
:10521000CBD1002318461037BD4680BD80B584B081
:1052200000AFF860B9607A6028E07A68B968F86819
:1052300000F030F80346002B01D0012326E0FDF7F3
:1052400061FB02467B68D31ABA689A4202D3BB68F4
:10525000002B13D1FB685B6C43F02002FB685A649F
:10526000FB68202283F84120FB68002283F842205B
:10527000FB68002283F84020012307E0FB681B68DD
:105280009B6903F02003202BCFD100231846103751
:10529000BD4680BD80B58AB000AFF860B9607A6065
:1052A000002387F82730FB681B689B69BB610023DC
:1052B0003B627B68FB61BB6903F01003002B75D078
:1052C000FB681B681022DA6156E0BB68B3F1FF3F50
:1052D00052D0FDF717FB0246FB69D31ABA689A420F
:1052E00002D3BB68002B47D1FB681B685B6803F4E3
:1052F00080437B61FB6893F84230FB74FB681B685A
:105300009B6903F40043B3F5004F2ED17B69B3F5DD
:10531000804F2AD0FB7C202B27D0FB681B685A6863
:10532000FB681B6842F480425A60FDF7EBFAF861B3
:105330001BE0FDF7E7FA0246FB69D31A192B14D9D3
:10534000FB685B6C43F02002FB685A64FB68202218
:1053500083F84120FB68002283F84220FB6800228A
:1053600083F84020012387F82730FB681B689B697E
:1053700003F02003202BDCD1FB681B689B6903F042
:105380002003202B03D097F82730002B9DD097F8CF
:105390002730002B03D1FB681B682022DA613B6AAF
:1053A00043F004033B62012387F82730FB681B6846
:1053B0009B69BB61BB6903F48073002B0BD03B6A14
:1053C00043F001033B62FB681B684FF48072DA61B3
:1053D000012387F82730BB6903F48063002B0BD0CF
:1053E0003B6A43F008033B62FB681B684FF4806232
:1053F000DA61012387F82730BB6903F40073002BBF
:105400000BD03B6A43F002033B62FB681B684FF41E
:105410000072DA61012387F8273097F82730002BD4
:105420001CD0F868FFF756FEFB681B685968FB68DC
:105430001A680D4B0B405360FB685A6C3B6A1A4369
:10544000FB685A64FB68202283F84120FB68002235
:1054500083F84220FB68002283F8402097F8273029
:1054600018462837BD4680BD00E800FE80B487B0EE
:1054700000AFF8607B600B467B8113467B727B89B3
:10548000C3F309027B7A1B0403F47F031A437B688E
:105490001A433B6A134323F000437B61FB681B689C
:1054A0005A683B6A5B0D03F48061084B0B43DB4396
:1054B00002EA0301FB681B687A690A435A6000BF6D
:1054C0001C37BD465DF8047B704700BFFF63FF03D8
:1054D00080B483B000AF786039607B6893F8413066
:1054E000DBB2202B38D17B6893F84030012B01D1FF
:1054F000022332E07B68012283F840207B6824226B
:1055000083F841207B681B681A687B681B6822F05F
:1055100001021A607B681B681A687B681B6822F4AA
:1055200080521A607B681B6819687B681B683A6840
:105530000A431A607B681B681A687B681B6842F024
:1055400001021A607B68202283F841207B680022D8
:1055500083F84020002300E0022318460C37BD46A4
:105560005DF8047B704780B485B000AF7860396027
:105570007B6893F84130DBB2202B39D17B6893F8FC
:105580004030012B01D1022333E07B68012283F8F4
:1055900040207B68242283F841207B681B681A68BE
:1055A0007B681B6822F001021A607B681B681B681D
:1055B000FB60FB6823F47063FB603B681B02FA68C6
:1055C0001343FB607B681B68FA681A607B681B6882
:1055D0001A687B681B6842F001021A607B6820220F
:1055E00083F841207B68002283F84020002300E0FC
:1055F000022318461437BD465DF8047B704700004F
:1056000080B485B000AF78607B68002B41D14B4BF4
:105610001B6803F4C063B3F5806F31D1474BD3F8F7
:105620008030464A23F48073C2F88030434B1B68B5
:1056300023F4C063414A43F400731360404B1B687A
:10564000322202FB03F33F4AA2FB03239B0C0133EC
:10565000FB6002E0FB68013BFB60384B5B6903F4D5
:105660008063B3F5806F02D1FB68002BF2D1334B1E
:105670005B6903F48063B3F5806F58D1032357E06F
:105680002E4BD3F880302D4A23F48073C2F880303B
:105690004DE07B68B3F5007F41D1284B1B6803F4D4
:1056A000C063B3F5806F31D1244BD3F88030234AE7
:1056B00043F48073C2F88030204B1B6823F4C0632E
:1056C0001E4A43F4007313601D4B1B68322202FB19
:1056D00003F31C4AA2FB03239B0C0133FB6002E093
:1056E000FB68013BFB60154B5B6903F48063B3F51A
:1056F000806F02D1FB68002BF2D1104B5B6903F481
:105700008063B3F5806F12D1032311E00B4BD3F804
:1057100080300A4A43F48073C2F8803007E0074BB8
:105720001B6823F4C063054A43F4806313600023BD
:1057300018461437BD465DF8047B70470070004082
:105740003400002083DE1B4380B400AF054B9B6810
:10575000044A43F48043936000BFBD465DF8047B78
:10576000704700BF0070004080B588B000AF78601F
:105770007B68002B01D1012306E37B681B6803F0E3
:105780000103002B75D0974B9B6803F00C03BB61A2
:10579000944BDB6803F003037B61BB690C2B02D1E4
:1057A0007B69032B02D0BB69082B0BD18D4B1B6887
:1057B00003F40033002B5BD07B685B68002B57D170
:1057C0000123E1E27B685B68B3F5803F06D1854B3E
:1057D0001B68844A43F4803313601DE07B685B6878
:1057E000B3F5A02F0CD17F4B1B687E4A43F4802376
:1057F00013607C4B1B687B4A43F4803313600BE0DF
:10580000784B1B68774A23F480331360754B1B6811
:10581000744A23F4802313607B685B68002B13D0E9
:10582000FDF770F8386108E0FDF76CF802463B6957
:10583000D31A642B01D90323A6E26A4B1B6803F435
:105840000033002BF0D014E0FDF75CF8386108E07D
:10585000FDF758F802463B69D31A642B01D903239C
:1058600092E2604B1B6803F40033002BF0D100E0A0
:1058700000BF7B681B6803F00203002B75D0594BF7
:105880009B6803F00C03BB61564BDB6803F003031A
:105890007B61BB690C2B02D17B69022B02D0BB69F7
:1058A000042B1FD14F4B1B6803F48063002B05D0E2
:1058B0007B68DB68002B01D1012365E2494B5B6803
:1058C00023F0FE427B681B691B06464913434B606D
:1058D000454B1B681846FCF7C9FF0346002B43D015
:1058E000012351E27B68DB68002B23D03D4B1B6812
:1058F0003C4A43F480731360FDF704F8386108E014
:10590000FDF700F802463B69D31A022B01D90323A5
:105910003AE2344B1B6803F48063002BF0D0314B28
:105920005B6823F0FE427B681B691B062D4913430D
:105930004B601AE02B4B1B682A4A23F480731360D8
:10594000FCF7E0FF386108E0FCF7DCFF02463B694A
:10595000D31A022B01D9032316E2224B1B6803F44E
:105960008063002BF0D100E000BF7B681B6803F070
:105970000803002B41D07B685B69002B1CD0194BBE
:10598000D3F89430174A43F00103C2F89430FCF77F
:10599000B9FF386108E0FCF7B5FF02463B69D31A4E
:1059A000022B01D90323EFE10E4BD3F8943003F01F
:1059B0000203002BEFD020E00A4BD3F89430094AC1
:1059C00023F00103C2F89430FCF79CFF38610DE02E
:1059D000FCF798FF02463B69D31A022B06D9032332
:1059E000D2E100BF00100240380000208C4BD3F8F9
:1059F000943003F00203002BEAD17B681B6803F0AC
:105A00000403002B00F0A6800023FB77844B9B6DE2
:105A100003F08053002B01D1012300E00023002B71
:105A20000DD07F4B9B6D7E4A43F0805393657C4B3A
:105A30009B6D03F08053FB60FB680123FB77794B80
:105A40001B6803F48073002B18D1764B1B68754AD2
:105A500043F480731360FCF755FF386108E0FCF7EE
:105A600051FF02463B69D31A022B01D903238BE174
:105A70006C4B1B6803F48073002BF0D07B689B6831
:105A8000012B08D1664BD3F89030654A43F00103EF
:105A9000C2F8903024E07B689B68052B10D1604BE6
:105AA000D3F890305E4A43F00403C2F890305C4B68
:105AB000D3F890305A4A43F00103C2F890300FE017
:105AC000574BD3F89030564A23F00103C2F8903078
:105AD000534BD3F89030524A23F00403C2F890306D
